{
  "_format": "hh-sol-artifact-1",
  "contractName": "AuctionV1",
  "sourceName": "contracts/logics/AuctionV1.sol",
  "abi": [
    {
      "inputs": [],
      "stateMutability": "nonpayable",
      "type": "constructor"
    },
    {
      "inputs": [
        {
          "internalType": "address",
          "name": "target",
          "type": "address"
        }
      ],
      "name": "AddressEmptyCode",
      "type": "error"
    },
    {
      "inputs": [
        {
          "internalType": "address",
          "name": "implementation",
          "type": "address"
        }
      ],
      "name": "ERC1967InvalidImplementation",
      "type": "error"
    },
    {
      "inputs": [],
      "name": "ERC1967NonPayable",
      "type": "error"
    },
    {
      "inputs": [],
      "name": "FailedCall",
      "type": "error"
    },
    {
      "inputs": [],
      "name": "InvalidInitialization",
      "type": "error"
    },
    {
      "inputs": [],
      "name": "NotInitializing",
      "type": "error"
    },
    {
      "inputs": [
        {
          "internalType": "address",
          "name": "owner",
          "type": "address"
        }
      ],
      "name": "OwnableInvalidOwner",
      "type": "error"
    },
    {
      "inputs": [
        {
          "internalType": "address",
          "name": "account",
          "type": "address"
        }
      ],
      "name": "OwnableUnauthorizedAccount",
      "type": "error"
    },
    {
      "inputs": [],
      "name": "ReentrancyGuardReentrantCall",
      "type": "error"
    },
    {
      "inputs": [],
      "name": "UUPSUnauthorizedCallContext",
      "type": "error"
    },
    {
      "inputs": [
        {
          "internalType": "bytes32",
          "name": "slot",
          "type": "bytes32"
        }
      ],
      "name": "UUPSUnsupportedProxiableUUID",
      "type": "error"
    },
    {
      "anonymous": false,
      "inputs": [
        {
          "indexed": true,
          "internalType": "address",
          "name": "seller",
          "type": "address"
        },
        {
          "indexed": true,
          "internalType": "uint256",
          "name": "tokenId",
          "type": "uint256"
        }
      ],
      "name": "AuctionCancelled",
      "type": "event"
    },
    {
      "anonymous": false,
      "inputs": [
        {
          "indexed": true,
          "internalType": "address",
          "name": "seller",
          "type": "address"
        },
        {
          "indexed": true,
          "internalType": "address",
          "name": "winner",
          "type": "address"
        },
        {
          "indexed": true,
          "internalType": "uint256",
          "name": "tokenId",
          "type": "uint256"
        },
        {
          "indexed": false,
          "internalType": "uint256",
          "name": "amount",
          "type": "uint256"
        }
      ],
      "name": "AuctionSettled",
      "type": "event"
    },
    {
      "anonymous": false,
      "inputs": [
        {
          "indexed": true,
          "internalType": "address",
          "name": "seller",
          "type": "address"
        },
        {
          "indexed": true,
          "internalType": "address",
          "name": "nftContract",
          "type": "address"
        },
        {
          "indexed": true,
          "internalType": "uint256",
          "name": "tokenId",
          "type": "uint256"
        },
        {
          "indexed": false,
          "internalType": "uint256",
          "name": "startPrice",
          "type": "uint256"
        },
        {
          "indexed": false,
          "internalType": "uint64",
          "name": "endTime",
          "type": "uint64"
        }
      ],
      "name": "AuctionStarted",
      "type": "event"
    },
    {
      "anonymous": false,
      "inputs": [
        {
          "indexed": true,
          "internalType": "address",
          "name": "bidder",
          "type": "address"
        },
        {
          "indexed": true,
          "internalType": "uint256",
          "name": "tokenId",
          "type": "uint256"
        },
        {
          "indexed": false,
          "internalType": "uint256",
          "name": "amount",
          "type": "uint256"
        }
      ],
      "name": "BidPlaced",
      "type": "event"
    },
    {
      "anonymous": false,
      "inputs": [
        {
          "indexed": false,
          "internalType": "uint64",
          "name": "version",
          "type": "uint64"
        }
      ],
      "name": "Initialized",
      "type": "event"
    },
    {
      "anonymous": false,
      "inputs": [
        {
          "indexed": true,
          "internalType": "address",
          "name": "previousOwner",
          "type": "address"
        },
        {
          "indexed": true,
          "internalType": "address",
          "name": "newOwner",
          "type": "address"
        }
      ],
      "name": "OwnershipTransferred",
      "type": "event"
    },
    {
      "anonymous": false,
      "inputs": [
        {
          "indexed": true,
          "internalType": "address",
          "name": "implementation",
          "type": "address"
        }
      ],
      "name": "Upgraded",
      "type": "event"
    },
    {
      "inputs": [],
      "name": "UPGRADE_INTERFACE_VERSION",
      "outputs": [
        {
          "internalType": "string",
          "name": "",
          "type": "string"
        }
      ],
      "stateMutability": "view",
      "type": "function"
    },
    {
      "inputs": [
        {
          "internalType": "uint256",
          "name": "",
          "type": "uint256"
        }
      ],
      "name": "auctionOfId",
      "outputs": [
        {
          "internalType": "address",
          "name": "seller",
          "type": "address"
        },
        {
          "internalType": "address",
          "name": "nftContract",
          "type": "address"
        },
        {
          "internalType": "uint256",
          "name": "tokenId",
          "type": "uint256"
        },
        {
          "internalType": "uint256",
          "name": "startPrice",
          "type": "uint256"
        },
        {
          "internalType": "uint256",
          "name": "highestBid",
          "type": "uint256"
        },
        {
          "internalType": "address",
          "name": "highestBidder",
          "type": "address"
        },
        {
          "internalType": "uint64",
          "name": "endTime",
          "type": "uint64"
        }
      ],
      "stateMutability": "view",
      "type": "function"
    },
    {
      "inputs": [
        {
          "internalType": "uint256",
          "name": "",
          "type": "uint256"
        }
      ],
      "name": "auctions",
      "outputs": [
        {
          "internalType": "address",
          "name": "seller",
          "type": "address"
        },
        {
          "internalType": "address",
          "name": "nftContract",
          "type": "address"
        },
        {
          "internalType": "uint256",
          "name": "tokenId",
          "type": "uint256"
        },
        {
          "internalType": "uint256",
          "name": "startPrice",
          "type": "uint256"
        },
        {
          "internalType": "uint256",
          "name": "highestBid",
          "type": "uint256"
        },
        {
          "internalType": "address",
          "name": "highestBidder",
          "type": "address"
        },
        {
          "internalType": "uint64",
          "name": "endTime",
          "type": "uint64"
        }
      ],
      "stateMutability": "view",
      "type": "function"
    },
    {
      "inputs": [
        {
          "internalType": "uint256",
          "name": "tokenId",
          "type": "uint256"
        },
        {
          "internalType": "uint256",
          "name": "amount",
          "type": "uint256"
        }
      ],
      "name": "bid",
      "outputs": [],
      "stateMutability": "nonpayable",
      "type": "function"
    },
    {
      "inputs": [
        {
          "internalType": "uint256",
          "name": "tokenId",
          "type": "uint256"
        }
      ],
      "name": "cancelAuction",
      "outputs": [],
      "stateMutability": "nonpayable",
      "type": "function"
    },
    {
      "inputs": [],
      "name": "getAllAuctions",
      "outputs": [
        {
          "components": [
            {
              "internalType": "address",
              "name": "seller",
              "type": "address"
            },
            {
              "internalType": "address",
              "name": "nftContract",
              "type": "address"
            },
            {
              "internalType": "uint256",
              "name": "tokenId",
              "type": "uint256"
            },
            {
              "internalType": "uint256",
              "name": "startPrice",
              "type": "uint256"
            },
            {
              "internalType": "uint256",
              "name": "highestBid",
              "type": "uint256"
            },
            {
              "internalType": "address",
              "name": "highestBidder",
              "type": "address"
            },
            {
              "internalType": "uint64",
              "name": "endTime",
              "type": "uint64"
            }
          ],
          "internalType": "struct IAuction.AuctionInfo[]",
          "name": "",
          "type": "tuple[]"
        }
      ],
      "stateMutability": "view",
      "type": "function"
    },
    {
      "inputs": [
        {
          "internalType": "uint256",
          "name": "tokenId",
          "type": "uint256"
        }
      ],
      "name": "getAuction",
      "outputs": [
        {
          "components": [
            {
              "internalType": "address",
              "name": "seller",
              "type": "address"
            },
            {
              "internalType": "address",
              "name": "nftContract",
              "type": "address"
            },
            {
              "internalType": "uint256",
              "name": "tokenId",
              "type": "uint256"
            },
            {
              "internalType": "uint256",
              "name": "startPrice",
              "type": "uint256"
            },
            {
              "internalType": "uint256",
              "name": "highestBid",
              "type": "uint256"
            },
            {
              "internalType": "address",
              "name": "highestBidder",
              "type": "address"
            },
            {
              "internalType": "uint64",
              "name": "endTime",
              "type": "uint64"
            }
          ],
          "internalType": "struct IAuction.AuctionInfo",
          "name": "",
          "type": "tuple"
        }
      ],
      "stateMutability": "view",
      "type": "function"
    },
    {
      "inputs": [
        {
          "internalType": "uint256",
          "name": "",
          "type": "uint256"
        }
      ],
      "name": "idToIndex",
      "outputs": [
        {
          "internalType": "uint256",
          "name": "",
          "type": "uint256"
        }
      ],
      "stateMutability": "view",
      "type": "function"
    },
    {
      "inputs": [
        {
          "internalType": "address",
          "name": "_paymentToken",
          "type": "address"
        },
        {
          "internalType": "address",
          "name": "_owner",
          "type": "address"
        }
      ],
      "name": "initialize",
      "outputs": [],
      "stateMutability": "nonpayable",
      "type": "function"
    },
    {
      "inputs": [
        {
          "internalType": "uint256",
          "name": "tokenId",
          "type": "uint256"
        }
      ],
      "name": "isActive",
      "outputs": [
        {
          "internalType": "bool",
          "name": "",
          "type": "bool"
        }
      ],
      "stateMutability": "view",
      "type": "function"
    },
    {
      "inputs": [
        {
          "internalType": "address",
          "name": "",
          "type": "address"
        },
        {
          "internalType": "address",
          "name": "",
          "type": "address"
        },
        {
          "internalType": "uint256",
          "name": "",
          "type": "uint256"
        },
        {
          "internalType": "bytes",
          "name": "",
          "type": "bytes"
        }
      ],
      "name": "onERC721Received",
      "outputs": [
        {
          "internalType": "bytes4",
          "name": "",
          "type": "bytes4"
        }
      ],
      "stateMutability": "pure",
      "type": "function"
    },
    {
      "inputs": [],
      "name": "owner",
      "outputs": [
        {
          "internalType": "address",
          "name": "",
          "type": "address"
        }
      ],
      "stateMutability": "view",
      "type": "function"
    },
    {
      "inputs": [],
      "name": "paymentToken",
      "outputs": [
        {
          "internalType": "contract IERC20",
          "name": "",
          "type": "address"
        }
      ],
      "stateMutability": "view",
      "type": "function"
    },
    {
      "inputs": [],
      "name": "proxiableUUID",
      "outputs": [
        {
          "internalType": "bytes32",
          "name": "",
          "type": "bytes32"
        }
      ],
      "stateMutability": "view",
      "type": "function"
    },
    {
      "inputs": [],
      "name": "renounceOwnership",
      "outputs": [],
      "stateMutability": "nonpayable",
      "type": "function"
    },
    {
      "inputs": [
        {
          "internalType": "uint256",
          "name": "tokenId",
          "type": "uint256"
        }
      ],
      "name": "settle",
      "outputs": [],
      "stateMutability": "nonpayable",
      "type": "function"
    },
    {
      "inputs": [
        {
          "internalType": "address",
          "name": "nftContract",
          "type": "address"
        },
        {
          "internalType": "uint256",
          "name": "tokenId",
          "type": "uint256"
        },
        {
          "internalType": "uint256",
          "name": "startPrice",
          "type": "uint256"
        },
        {
          "internalType": "uint64",
          "name": "duration",
          "type": "uint64"
        }
      ],
      "name": "startAuction",
      "outputs": [],
      "stateMutability": "nonpayable",
      "type": "function"
    },
    {
      "inputs": [
        {
          "internalType": "address",
          "name": "newOwner",
          "type": "address"
        }
      ],
      "name": "transferOwnership",
      "outputs": [],
      "stateMutability": "nonpayable",
      "type": "function"
    },
    {
      "inputs": [
        {
          "internalType": "address",
          "name": "newImplementation",
          "type": "address"
        },
        {
          "internalType": "bytes",
          "name": "data",
          "type": "bytes"
        }
      ],
      "name": "upgradeToAndCall",
      "outputs": [],
      "stateMutability": "payable",
      "type": "function"
    }
  ],
  "bytecode": "0x60a06040523060805234801561001457600080fd5b5061001d610022565b6100d4565b7ff0c57e16840df040f15088dc2f81fe391c3923bec73e23a9662efc9c229c6a00805468010000000000000000900460ff16156100725760405163f92ee8a960e01b815260040160405180910390fd5b80546001600160401b03908116146100d15780546001600160401b0319166001600160401b0390811782556040519081527fc7f505b2f371ae2175ee4913f4499e1f2633a7b5936321eed1cdaeb6115181d29060200160405180910390a15b50565b6080516121636100fd600039600081816115560152818161157f01526116c501526121636000f3fe6080604052600436106101145760003560e01c8063715018a6116100a057806396b5a7551161006457806396b5a75514610464578063ad3cb1cc14610484578063c0332217146104c2578063cbd2bdfd14610534578063f2fde38b1461055657600080fd5b8063715018a6146102cc57806378bd7935146102e157806382afd23b146103bf5780638da5cb5b146104075780638df828001461044457600080fd5b8063485cc955116100e7578063485cc955146101f85780634f1ef2861461021857806352d1902d1461022b578063571a26a014610240578063598647f8146102ac57600080fd5b8063150b7a02146101195780631874923a146101635780633013ce29146101855780633df6db72146101bd575b600080fd5b34801561012557600080fd5b50610145610134366004611c47565b630a85bd0160e11b95945050505050565b6040516001600160e01b031990911681526020015b60405180910390f35b34801561016f57600080fd5b5061018361017e366004611ce6565b610576565b005b34801561019157600080fd5b506000546101a5906001600160a01b031681565b6040516001600160a01b03909116815260200161015a565b3480156101c957600080fd5b506101ea6101d8366004611d3c565b60036020526000908152604090205481565b60405190815260200161015a565b34801561020457600080fd5b50610183610213366004611d55565b610a77565b610183610226366004611da4565b610b9d565b34801561023757600080fd5b506101ea610bbc565b34801561024c57600080fd5b5061026061025b366004611d3c565b610bd9565b604080516001600160a01b03988916815296881660208801528601949094526060850192909252608084015290921660a08201526001600160401b0390911660c082015260e00161015a565b3480156102b857600080fd5b506101836102c7366004611e6d565b610c41565b3480156102d857600080fd5b50610183610f9b565b3480156102ed57600080fd5b506103b26102fc366004611d3c565b6040805160e081018252600080825260208201819052918101829052606081018290526080810182905260a0810182905260c081019190915250600090815260016020818152604092839020835160e08101855281546001600160a01b03908116825293820154841692810192909252600281015493820193909352600383015460608201526004830154608082015260059092015490811660a0830152600160a01b90046001600160401b031660c082015290565b60405161015a9190611ee9565b3480156103cb57600080fd5b506103f76103da366004611d3c565b6000908152600160205260409020546001600160a01b0316151590565b604051901515815260200161015a565b34801561041357600080fd5b507f9016d09d72d40fdae2fd8ceac6b6234c7706214fd39c1cd1e609a0528c199300546001600160a01b03166101a5565b34801561045057600080fd5b5061018361045f366004611d3c565b610faf565b34801561047057600080fd5b5061018361047f366004611d3c565b611228565b34801561049057600080fd5b506104b5604051806040016040528060058152602001640352e302e360dc1b81525081565b60405161015a9190611f1b565b3480156104ce57600080fd5b506102606104dd366004611d3c565b60016020819052600091825260409091208054918101546002820154600383015460048401546005909401546001600160a01b0395861695938416949293919291811690600160a01b90046001600160401b031687565b34801561054057600080fd5b506105496113b4565b60405161015a9190611f4e565b34801561056257600080fd5b50610183610571366004611f9c565b611470565b61057e6114ab565b600082116105ca5760405162461bcd60e51b815260206004820152601460248201527305374617274207072696365206d757374203e20360641b60448201526064015b60405180910390fd5b6000816001600160401b0316116106175760405162461bcd60e51b815260206004820152601160248201527004475726174696f6e206d757374203e203607c1b60448201526064016105c1565b6000838152600160205260409020546001600160a01b0316156106715760405162461bcd60e51b815260206004820152601260248201527120b63932b0b23c9034b71030bab1ba34b7b760711b60448201526064016105c1565b6040516331a9108f60e11b815260048101849052849033906001600160a01b03831690636352211e90602401602060405180830381865afa1580156106ba573d6000803e3d6000fd5b505050506040513d601f19601f820116820180604052508101906106de9190611fb9565b6001600160a01b0316146107205760405162461bcd60e51b81526020600482015260096024820152682737ba1037bbb732b960b91b60448201526064016105c1565b604051632142170760e11b81526001600160a01b038216906342842e0e9061075090339030908990600401611fd6565b600060405180830381600087803b15801561076a57600080fd5b505af115801561077e573d6000803e3d6000fd5b50505050600082426107909190612010565b905060006040518060e00160405280336001600160a01b03168152602001886001600160a01b031681526020018781526020018681526020016000815260200160006001600160a01b03168152602001836001600160401b03168152509050806001600088815260200190815260200160002060008201518160000160006101000a8154816001600160a01b0302191690836001600160a01b0316021790555060208201518160010160006101000a8154816001600160a01b0302191690836001600160a01b0316021790555060408201518160020155606082015181600301556080820151816004015560a08201518160050160006101000a8154816001600160a01b0302191690836001600160a01b0316021790555060c08201518160050160146101000a8154816001600160401b0302191690836001600160401b03160217905550905050600281908060018154018082558091505060019003906000526020600020906006020160009091909190915060008201518160000160006101000a8154816001600160a01b0302191690836001600160a01b0316021790555060208201518160010160006101000a8154816001600160a01b0302191690836001600160a01b0316021790555060408201518160020155606082015181600301556080820151816004015560a08201518160050160006101000a8154816001600160a01b0302191690836001600160a01b0316021790555060c08201518160050160146101000a8154816001600160401b0302191690836001600160401b03160217905550505060016002805490506109ea919061202f565b60008781526003602052604090819020919091555186906001600160a01b0389169033907f7279d1492f299346f3f8d1638b07fccfa92e0618d1f62b0c70bfc6a5f63dd65b90610a4f908a9088909182526001600160401b0316602082015260400190565b60405180910390a4505050610a71600160008051602061210e83398151915255565b50505050565b6000610a816114f7565b805490915060ff600160401b82041615906001600160401b0316600081158015610aa85750825b90506000826001600160401b03166001148015610ac45750303b155b905081158015610ad2575080155b15610af05760405163f92ee8a960e01b815260040160405180910390fd5b845467ffffffffffffffff191660011785558315610b1a57845460ff60401b1916600160401b1785555b610b2386611522565b610b2b611533565b610b3361153b565b600080546001600160a01b0319166001600160a01b0389161790558315610b9457845460ff60401b19168555604051600181527fc7f505b2f371ae2175ee4913f4499e1f2633a7b5936321eed1cdaeb6115181d29060200160405180910390a15b50505050505050565b610ba561154b565b610bae826115f0565b610bb882826115f8565b5050565b6000610bc66116ba565b506000805160206120ee83398151915290565b60028181548110610be957600080fd5b60009182526020909120600690910201805460018201546002830154600384015460048501546005909501546001600160a01b039485169650928416949193909290811690600160a01b90046001600160401b031687565b610c496114ab565b6000828152600160205260409020546001600160a01b0316610c7d5760405162461bcd60e51b81526004016105c190612042565b60008281526001602052604090206005810154600160a01b90046001600160401b03164210610cde5760405162461bcd60e51b815260206004820152600d60248201526c105d58dd1a5bdb88195b991959609a1b60448201526064016105c1565b8060030154821015610d265760405162461bcd60e51b815260206004820152601160248201527042656c6f7720737461727420707269636560781b60448201526064016105c1565b80600401548211610d6f5760405162461bcd60e51b8152602060048201526013602482015272084d2c840dcdee840d0d2ced040cadcdeeaced606b1b60448201526064016105c1565b6000546040516323b872dd60e01b81526001600160a01b03909116906323b872dd90610da390339030908790600401611fd6565b6020604051808303816000875af1158015610dc2573d6000803e3d6000fd5b505050506040513d601f19601f82011682018060405250810190610de6919061206a565b5060058101546001600160a01b031615801590610e07575060008160040154115b15610e8f57600054600582015460048084015460405163a9059cbb60e01b81526001600160a01b0393841692810192909252602482015291169063a9059cbb906044016020604051808303816000875af1158015610e69573d6000803e3d6000fd5b505050506040513d601f19601f82011682018060405250810190610e8d919061206a565b505b600481018290556005810180546001600160a01b03191633179055600083815260036020526040902054600280548492908110610ece57610ece61208c565b906000526020600020906006020160040181905550336002600360008681526020019081526020016000205481548110610f0a57610f0a61208c565b906000526020600020906006020160050160006101000a8154816001600160a01b0302191690836001600160a01b0316021790555082336001600160a01b03167fdf8644c0a4c21ed214ce69f395675b3a5fcd1039083daea5058898de40ea314984604051610f7b91815260200190565b60405180910390a350610bb8600160008051602061210e83398151915255565b610fa3611703565b610fad600061175e565b565b610fb76114ab565b6000818152600160205260409020546001600160a01b0316610feb5760405162461bcd60e51b81526004016105c190612042565b600081815260016020526040902080546001600160a01b0316331461103f5760405162461bcd60e51b815260206004820152600a6024820152692737ba1039b2b63632b960b11b60448201526064016105c1565b600581015460048201546001600160a01b039091169081158015906110645750600081115b1561114f576001830154604051632142170760e11b81526001600160a01b03909116906342842e0e9061109f90309086908990600401611fd6565b600060405180830381600087803b1580156110b957600080fd5b505af11580156110cd573d6000803e3d6000fd5b5050600054855460405163a9059cbb60e01b81526001600160a01b039182166004820152602481018690529116925063a9059cbb91506044016020604051808303816000875af1158015611125573d6000803e3d6000fd5b505050506040513d601f19601f82011682018060405250810190611149919061206a565b506111bc565b60018301548354604051632142170760e11b81526001600160a01b03928316926342842e0e92611189923092909116908990600401611fd6565b600060405180830381600087803b1580156111a357600080fd5b505af11580156111b7573d6000803e3d6000fd5b505050505b825460405182815285916001600160a01b03858116929116907f8e20445ba3faa1d2af4036705f5cb24e818f43c41d83999a95ac3ca25bf47cce9060200160405180910390a461120b846117cf565b505050611225600160008051602061210e83398151915255565b50565b6112306114ab565b6000818152600160205260409020546001600160a01b03166112645760405162461bcd60e51b81526004016105c190612042565b600081815260016020526040902080546001600160a01b031633146112b85760405162461bcd60e51b815260206004820152600a6024820152692737ba1039b2b63632b960b11b60448201526064016105c1565b60058101546001600160a01b0316156112fe5760405162461bcd60e51b8152602060048201526008602482015267486173206269647360c01b60448201526064016105c1565b6001810154604051632142170760e11b81526001600160a01b03909116906342842e0e9061133490309033908790600401611fd6565b600060405180830381600087803b15801561134e57600080fd5b505af1158015611362573d6000803e3d6000fd5b50506040518492503391507f018b64b6242d32aa550e95d78985b938d71af5b3f10827b0683f55da1639304890600090a361139c826117cf565b50611225600160008051602061210e83398151915255565b60606002805480602002602001604051908101604052809291908181526020016000905b828210156114675760008481526020908190206040805160e0810182526006860290920180546001600160a01b039081168452600180830154821685870152600283015493850193909352600382015460608501526004820154608085015260059091015490811660a0840152600160a01b90046001600160401b031660c083015290835290920191016113d8565b50505050905090565b611478611703565b6001600160a01b0381166114a257604051631e4fbdf760e01b8152600060048201526024016105c1565b6112258161175e565b60008051602061210e8339815191528054600119016114dd57604051633ee5aeb560e01b815260040160405180910390fd5b60029055565b600160008051602061210e83398151915255565b6000807ff0c57e16840df040f15088dc2f81fe391c3923bec73e23a9662efc9c229c6a005b92915050565b61152a611a0c565b61122581611a31565b610fad611a0c565b611543611a0c565b610fad611a39565b306001600160a01b037f00000000000000000000000000000000000000000000000000000000000000001614806115d257507f00000000000000000000000000000000000000000000000000000000000000006001600160a01b03166115c66000805160206120ee833981519152546001600160a01b031690565b6001600160a01b031614155b15610fad5760405163703e46dd60e11b815260040160405180910390fd5b611225611703565b816001600160a01b03166352d1902d6040518163ffffffff1660e01b8152600401602060405180830381865afa925050508015611652575060408051601f3d908101601f1916820190925261164f918101906120a2565b60015b61167a57604051634c9c8ce360e01b81526001600160a01b03831660048201526024016105c1565b6000805160206120ee83398151915281146116ab57604051632a87526960e21b8152600481018290526024016105c1565b6116b58383611a41565b505050565b306001600160a01b037f00000000000000000000000000000000000000000000000000000000000000001614610fad5760405163703e46dd60e11b815260040160405180910390fd5b336117357f9016d09d72d40fdae2fd8ceac6b6234c7706214fd39c1cd1e609a0528c199300546001600160a01b031690565b6001600160a01b031614610fad5760405163118cdaa760e01b81523360048201526024016105c1565b7f9016d09d72d40fdae2fd8ceac6b6234c7706214fd39c1cd1e609a0528c19930080546001600160a01b031981166001600160a01b03848116918217845560405192169182907f8be0079c531659141344cd1fd0a4f28419497f9722a3daafe3b4186f6b6457e090600090a3505050565b6000818152600360205260408120546002549091906117f09060019061202f565b90508082146119545760006002828154811061180e5761180e61208c565b60009182526020918290206040805160e08101825260069390930290910180546001600160a01b03908116845260018201548116948401949094526002808201549284019290925260038101546060840152600481015460808401526005015492831660a0830152600160a01b9092046001600160401b031660c08201528154909250829190859081106118a4576118a461208c565b60009182526020808320845160069093020180546001600160a01b039384166001600160a01b03199182161782558583015160018301805491861691909216179055604080860151600283015560608601516003808401919091556080870151600484015560a08701516005909301805460c0909801516001600160401b0316600160a01b026001600160e01b031990981693909516929092179590951790925593830151825290925290208290555b6002805480611965576119656120bb565b6000828152602080822060066000199094019384020180546001600160a01b031990811682556001828101805483169055600280840186905560038085018790556004808601889055600595860180546001600160e01b0319908116909155989099559a86528a8552604080872087905594829052938520805483168155908101805490921690915591820183905596810182905592830155930180549093169092555050565b611a14611a97565b610fad57604051631afcd79f60e31b815260040160405180910390fd5b611478611a0c565b6114e3611a0c565b611a4a82611ab1565b6040516001600160a01b038316907fbc7cd75a20ee27fd9adebab32041f755214dbc6bffa90cc0225b39da2e5c2d3b90600090a2805115611a8f576116b58282611b16565b610bb8611b8c565b6000611aa16114f7565b54600160401b900460ff16919050565b806001600160a01b03163b600003611ae757604051634c9c8ce360e01b81526001600160a01b03821660048201526024016105c1565b6000805160206120ee83398151915280546001600160a01b0319166001600160a01b0392909216919091179055565b6060600080846001600160a01b031684604051611b3391906120d1565b600060405180830381855af49150503d8060008114611b6e576040519150601f19603f3d011682016040523d82523d6000602084013e611b73565b606091505b5091509150611b83858383611bab565b95945050505050565b3415610fad5760405163b398979f60e01b815260040160405180910390fd5b606082611bc057611bbb82611c0a565b611c03565b8151158015611bd757506001600160a01b0384163b155b15611c0057604051639996b31560e01b81526001600160a01b03851660048201526024016105c1565b50805b9392505050565b805115611c1957805160208201fd5b60405163d6bda27560e01b815260040160405180910390fd5b6001600160a01b038116811461122557600080fd5b600080600080600060808688031215611c5f57600080fd5b8535611c6a81611c32565b94506020860135611c7a81611c32565b93506040860135925060608601356001600160401b03811115611c9c57600080fd5b8601601f81018813611cad57600080fd5b80356001600160401b03811115611cc357600080fd5b886020828401011115611cd557600080fd5b959894975092955050506020019190565b60008060008060808587031215611cfc57600080fd5b8435611d0781611c32565b9350602085013592506040850135915060608501356001600160401b0381168114611d3157600080fd5b939692955090935050565b600060208284031215611d4e57600080fd5b5035919050565b60008060408385031215611d6857600080fd5b8235611d7381611c32565b91506020830135611d8381611c32565b809150509250929050565b634e487b7160e01b600052604160045260246000fd5b60008060408385031215611db757600080fd5b8235611dc281611c32565b915060208301356001600160401b03811115611ddd57600080fd5b8301601f81018513611dee57600080fd5b80356001600160401b03811115611e0757611e07611d8e565b604051601f8201601f19908116603f011681016001600160401b0381118282101715611e3557611e35611d8e565b604052818152828201602001871015611e4d57600080fd5b816020840160208301376000602083830101528093505050509250929050565b60008060408385031215611e8057600080fd5b50508035926020909101359150565b80516001600160a01b03908116835260208083015182169084015260408083015190840152606080830151908401526080808301519084015260a0828101519091169083015260c0908101516001600160401b0316910152565b60e0810161151c8284611e8f565b60005b83811015611f12578181015183820152602001611efa565b50506000910152565b6020815260008251806020840152611f3a816040850160208701611ef7565b601f01601f19169190910160400192915050565b602080825282518282018190526000918401906040840190835b81811015611f9157611f7b838551611e8f565b6020939093019260e09290920191600101611f68565b509095945050505050565b600060208284031215611fae57600080fd5b8135611c0381611c32565b600060208284031215611fcb57600080fd5b8151611c0381611c32565b6001600160a01b039384168152919092166020820152604081019190915260600190565b634e487b7160e01b600052601160045260246000fd5b6001600160401b03818116838216019081111561151c5761151c611ffa565b8181038181111561151c5761151c611ffa565b6020808252600e908201526d2737ba1034b71030bab1ba34b7b760911b604082015260600190565b60006020828403121561207c57600080fd5b81518015158114611c0357600080fd5b634e487b7160e01b600052603260045260246000fd5b6000602082840312156120b457600080fd5b5051919050565b634e487b7160e01b600052603160045260246000fd5b600082516120e3818460208701611ef7565b919091019291505056fe360894a13ba1a3210667c828492db98dca3e2076cc3735a920a3ca505d382bbc9b779b17422d0df92223018b32b4d1fa46e071723d6817e2486d003becc55f00a26469706673582212202f2f9342578b3ee0eca72b927884a956a65804ca5247fe4eacf7e9bb2f902acb64736f6c634300081c0033",
  "linkReferences": {},
  "deployedLinkReferences": {}
}