{
  "_format": "hh-sol-artifact-1",
  "contractName": "FaucetV1",
  "sourceName": "contracts/logics/FaucetV1.sol",
  "abi": [
    {
      "inputs": [],
      "stateMutability": "nonpayable",
      "type": "constructor"
    },
    {
      "inputs": [
        {
          "internalType": "address",
          "name": "target",
          "type": "address"
        }
      ],
      "name": "AddressEmptyCode",
      "type": "error"
    },
    {
      "inputs": [
        {
          "internalType": "address",
          "name": "implementation",
          "type": "address"
        }
      ],
      "name": "ERC1967InvalidImplementation",
      "type": "error"
    },
    {
      "inputs": [],
      "name": "ERC1967NonPayable",
      "type": "error"
    },
    {
      "inputs": [],
      "name": "FailedCall",
      "type": "error"
    },
    {
      "inputs": [],
      "name": "InvalidInitialization",
      "type": "error"
    },
    {
      "inputs": [],
      "name": "NotInitializing",
      "type": "error"
    },
    {
      "inputs": [
        {
          "internalType": "address",
          "name": "owner",
          "type": "address"
        }
      ],
      "name": "OwnableInvalidOwner",
      "type": "error"
    },
    {
      "inputs": [
        {
          "internalType": "address",
          "name": "account",
          "type": "address"
        }
      ],
      "name": "OwnableUnauthorizedAccount",
      "type": "error"
    },
    {
      "inputs": [],
      "name": "UUPSUnauthorizedCallContext",
      "type": "error"
    },
    {
      "inputs": [
        {
          "internalType": "bytes32",
          "name": "slot",
          "type": "bytes32"
        }
      ],
      "name": "UUPSUnsupportedProxiableUUID",
      "type": "error"
    },
    {
      "anonymous": false,
      "inputs": [
        {
          "indexed": false,
          "internalType": "uint64",
          "name": "version",
          "type": "uint64"
        }
      ],
      "name": "Initialized",
      "type": "event"
    },
    {
      "anonymous": false,
      "inputs": [
        {
          "indexed": true,
          "internalType": "address",
          "name": "previousOwner",
          "type": "address"
        },
        {
          "indexed": true,
          "internalType": "address",
          "name": "newOwner",
          "type": "address"
        }
      ],
      "name": "OwnershipTransferred",
      "type": "event"
    },
    {
      "anonymous": false,
      "inputs": [
        {
          "indexed": true,
          "internalType": "address",
          "name": "user",
          "type": "address"
        },
        {
          "indexed": false,
          "internalType": "uint256",
          "name": "amount",
          "type": "uint256"
        }
      ],
      "name": "TokensClaimed",
      "type": "event"
    },
    {
      "anonymous": false,
      "inputs": [
        {
          "indexed": true,
          "internalType": "address",
          "name": "implementation",
          "type": "address"
        }
      ],
      "name": "Upgraded",
      "type": "event"
    },
    {
      "inputs": [],
      "name": "UPGRADE_INTERFACE_VERSION",
      "outputs": [
        {
          "internalType": "string",
          "name": "",
          "type": "string"
        }
      ],
      "stateMutability": "view",
      "type": "function"
    },
    {
      "inputs": [],
      "name": "amountPerClaim",
      "outputs": [
        {
          "internalType": "uint256",
          "name": "",
          "type": "uint256"
        }
      ],
      "stateMutability": "view",
      "type": "function"
    },
    {
      "inputs": [],
      "name": "claim",
      "outputs": [],
      "stateMutability": "nonpayable",
      "type": "function"
    },
    {
      "inputs": [],
      "name": "cooldownTime",
      "outputs": [
        {
          "internalType": "uint256",
          "name": "",
          "type": "uint256"
        }
      ],
      "stateMutability": "view",
      "type": "function"
    },
    {
      "inputs": [
        {
          "internalType": "address",
          "name": "user",
          "type": "address"
        }
      ],
      "name": "getRemainingCooldown",
      "outputs": [
        {
          "internalType": "uint256",
          "name": "",
          "type": "uint256"
        }
      ],
      "stateMutability": "view",
      "type": "function"
    },
    {
      "inputs": [
        {
          "internalType": "address",
          "name": "_stablecoin",
          "type": "address"
        },
        {
          "internalType": "uint256",
          "name": "_amountPerClaim",
          "type": "uint256"
        },
        {
          "internalType": "uint256",
          "name": "_cooldownTime",
          "type": "uint256"
        },
        {
          "internalType": "address",
          "name": "_owner",
          "type": "address"
        }
      ],
      "name": "initialize",
      "outputs": [],
      "stateMutability": "nonpayable",
      "type": "function"
    },
    {
      "inputs": [
        {
          "internalType": "address",
          "name": "",
          "type": "address"
        }
      ],
      "name": "lastClaimTime",
      "outputs": [
        {
          "internalType": "uint256",
          "name": "",
          "type": "uint256"
        }
      ],
      "stateMutability": "view",
      "type": "function"
    },
    {
      "inputs": [],
      "name": "owner",
      "outputs": [
        {
          "internalType": "address",
          "name": "",
          "type": "address"
        }
      ],
      "stateMutability": "view",
      "type": "function"
    },
    {
      "inputs": [],
      "name": "proxiableUUID",
      "outputs": [
        {
          "internalType": "bytes32",
          "name": "",
          "type": "bytes32"
        }
      ],
      "stateMutability": "view",
      "type": "function"
    },
    {
      "inputs": [],
      "name": "renounceOwnership",
      "outputs": [],
      "stateMutability": "nonpayable",
      "type": "function"
    },
    {
      "inputs": [
        {
          "internalType": "uint256",
          "name": "_amount",
          "type": "uint256"
        }
      ],
      "name": "setAmountPerClaim",
      "outputs": [],
      "stateMutability": "nonpayable",
      "type": "function"
    },
    {
      "inputs": [
        {
          "internalType": "uint256",
          "name": "_cooldown",
          "type": "uint256"
        }
      ],
      "name": "setCooldownTime",
      "outputs": [],
      "stateMutability": "nonpayable",
      "type": "function"
    },
    {
      "inputs": [],
      "name": "stablecoin",
      "outputs": [
        {
          "internalType": "contract IStablecoin",
          "name": "",
          "type": "address"
        }
      ],
      "stateMutability": "view",
      "type": "function"
    },
    {
      "inputs": [
        {
          "internalType": "address",
          "name": "newOwner",
          "type": "address"
        }
      ],
      "name": "transferOwnership",
      "outputs": [],
      "stateMutability": "nonpayable",
      "type": "function"
    },
    {
      "inputs": [
        {
          "internalType": "address",
          "name": "newImplementation",
          "type": "address"
        },
        {
          "internalType": "bytes",
          "name": "data",
          "type": "bytes"
        }
      ],
      "name": "upgradeToAndCall",
      "outputs": [],
      "stateMutability": "payable",
      "type": "function"
    }
  ],
  "bytecode": "0x60a06040523060805234801561001457600080fd5b5061001d610022565b6100d4565b7ff0c57e16840df040f15088dc2f81fe391c3923bec73e23a9662efc9c229c6a00805468010000000000000000900460ff16156100725760405163f92ee8a960e01b815260040160405180910390fd5b80546001600160401b03908116146100d15780546001600160401b0319166001600160401b0390811782556040519081527fc7f505b2f371ae2175ee4913f4499e1f2633a7b5936321eed1cdaeb6115181d29060200160405180910390a15b50565b608051610da36100fd60003960008181610692015281816106bb01526108010152610da36000f3fe6080604052600436106100e85760003560e01c80638da5cb5b1161008a578063b77cf9c611610059578063b77cf9c61461026f578063e6f3e0041461029c578063e9cbd822146102bc578063f2fde38b146102dc57600080fd5b80638da5cb5b146101aa5780639e3d87cd146101fb578063ad3cb1cc1461021b578063b319c6b71461025957600080fd5b80634f1ef286116100c65780634f1ef2861461014d57806352d1902d146101605780636ff7320114610175578063715018a61461019557600080fd5b8063013d8847146100ed57806329997d5d146101165780634e71d92d14610138575b600080fd5b3480156100f957600080fd5b5061010360015481565b6040519081526020015b60405180910390f35b34801561012257600080fd5b50610136610131366004610b0f565b6102fc565b005b34801561014457600080fd5b50610136610309565b61013661015b366004610b5a565b610418565b34801561016c57600080fd5b50610103610437565b34801561018157600080fd5b50610136610190366004610b0f565b610454565b3480156101a157600080fd5b50610136610461565b3480156101b657600080fd5b507f9016d09d72d40fdae2fd8ceac6b6234c7706214fd39c1cd1e609a0528c199300546001600160a01b03165b6040516001600160a01b03909116815260200161010d565b34801561020757600080fd5b50610136610216366004610c24565b610475565b34801561022757600080fd5b5061024c604051806040016040528060058152602001640352e302e360dc1b81525081565b60405161010d9190610c8e565b34801561026557600080fd5b5061010360025481565b34801561027b57600080fd5b5061010361028a366004610cc1565b60036020526000908152604090205481565b3480156102a857600080fd5b506101036102b7366004610cc1565b6105a1565b3480156102c857600080fd5b506000546101e3906001600160a01b031681565b3480156102e857600080fd5b506101366102f7366004610cc1565b6105ee565b61030461062c565b600155565b600254336000908152600360205260409020546103269190610cf2565b4210156103655760405162461bcd60e51b815260206004820152600860248201526721b7b7b63237bbb760c11b60448201526064015b60405180910390fd5b33600081815260036020526040808220429055905460015491516340c10f1960e01b8152600481019390935260248301919091526001600160a01b0316906340c10f1990604401600060405180830381600087803b1580156103c657600080fd5b505af11580156103da573d6000803e3d6000fd5b50506001546040519081523392507f896e034966eaaf1adc54acc0f257056febbd300c9e47182cf761982cf1f5e430915060200160405180910390a2565b610420610687565b6104298261072c565b6104338282610734565b5050565b60006104416107f6565b50600080516020610d4e83398151915290565b61045c61062c565b600255565b61046961062c565b610473600061083f565b565b600061047f6108b0565b805490915060ff600160401b820416159067ffffffffffffffff166000811580156104a75750825b905060008267ffffffffffffffff1660011480156104c45750303b155b9050811580156104d2575080155b156104f05760405163f92ee8a960e01b815260040160405180910390fd5b845467ffffffffffffffff19166001178555831561051a57845460ff60401b1916600160401b1785555b610523866108db565b61052b6108ec565b600080546001600160a01b0319166001600160a01b038b1617905560018890556002879055831561059657845460ff60401b19168555604051600181527fc7f505b2f371ae2175ee4913f4499e1f2633a7b5936321eed1cdaeb6115181d29060200160405180910390a15b505050505050505050565b6002546001600160a01b038216600090815260036020526040812054909182916105cb9190610cf2565b90508042106105dd5750600092915050565b6105e74282610d05565b9392505050565b6105f661062c565b6001600160a01b03811661062057604051631e4fbdf760e01b81526000600482015260240161035c565b6106298161083f565b50565b3361065e7f9016d09d72d40fdae2fd8ceac6b6234c7706214fd39c1cd1e609a0528c199300546001600160a01b031690565b6001600160a01b0316146104735760405163118cdaa760e01b815233600482015260240161035c565b306001600160a01b037f000000000000000000000000000000000000000000000000000000000000000016148061070e57507f00000000000000000000000000000000000000000000000000000000000000006001600160a01b0316610702600080516020610d4e833981519152546001600160a01b031690565b6001600160a01b031614155b156104735760405163703e46dd60e11b815260040160405180910390fd5b61062961062c565b816001600160a01b03166352d1902d6040518163ffffffff1660e01b8152600401602060405180830381865afa92505050801561078e575060408051601f3d908101601f1916820190925261078b91810190610d18565b60015b6107b657604051634c9c8ce360e01b81526001600160a01b038316600482015260240161035c565b600080516020610d4e83398151915281146107e757604051632a87526960e21b81526004810182905260240161035c565b6107f183836108f4565b505050565b306001600160a01b037f000000000000000000000000000000000000000000000000000000000000000016146104735760405163703e46dd60e11b815260040160405180910390fd5b7f9016d09d72d40fdae2fd8ceac6b6234c7706214fd39c1cd1e609a0528c19930080546001600160a01b031981166001600160a01b03848116918217845560405192169182907f8be0079c531659141344cd1fd0a4f28419497f9722a3daafe3b4186f6b6457e090600090a3505050565b6000807ff0c57e16840df040f15088dc2f81fe391c3923bec73e23a9662efc9c229c6a005b92915050565b6108e361094a565b6106298161096f565b61047361094a565b6108fd82610977565b6040516001600160a01b038316907fbc7cd75a20ee27fd9adebab32041f755214dbc6bffa90cc0225b39da2e5c2d3b90600090a2805115610942576107f182826109dc565b610433610a52565b610952610a71565b61047357604051631afcd79f60e31b815260040160405180910390fd5b6105f661094a565b806001600160a01b03163b6000036109ad57604051634c9c8ce360e01b81526001600160a01b038216600482015260240161035c565b600080516020610d4e83398151915280546001600160a01b0319166001600160a01b0392909216919091179055565b6060600080846001600160a01b0316846040516109f99190610d31565b600060405180830381855af49150503d8060008114610a34576040519150601f19603f3d011682016040523d82523d6000602084013e610a39565b606091505b5091509150610a49858383610a8b565b95945050505050565b34156104735760405163b398979f60e01b815260040160405180910390fd5b6000610a7b6108b0565b54600160401b900460ff16919050565b606082610aa057610a9b82610ae7565b6105e7565b8151158015610ab757506001600160a01b0384163b155b15610ae057604051639996b31560e01b81526001600160a01b038516600482015260240161035c565b5092915050565b805115610af657805160208201fd5b60405163d6bda27560e01b815260040160405180910390fd5b600060208284031215610b2157600080fd5b5035919050565b80356001600160a01b0381168114610b3f57600080fd5b919050565b634e487b7160e01b600052604160045260246000fd5b60008060408385031215610b6d57600080fd5b610b7683610b28565b9150602083013567ffffffffffffffff811115610b9257600080fd5b8301601f81018513610ba357600080fd5b803567ffffffffffffffff811115610bbd57610bbd610b44565b604051601f8201601f19908116603f0116810167ffffffffffffffff81118282101715610bec57610bec610b44565b604052818152828201602001871015610c0457600080fd5b816020840160208301376000602083830101528093505050509250929050565b60008060008060808587031215610c3a57600080fd5b610c4385610b28565b93506020850135925060408501359150610c5f60608601610b28565b905092959194509250565b60005b83811015610c85578181015183820152602001610c6d565b50506000910152565b6020815260008251806020840152610cad816040850160208701610c6a565b601f01601f19169190910160400192915050565b600060208284031215610cd357600080fd5b6105e782610b28565b634e487b7160e01b600052601160045260246000fd5b808201808211156108d5576108d5610cdc565b818103818111156108d5576108d5610cdc565b600060208284031215610d2a57600080fd5b5051919050565b60008251610d43818460208701610c6a565b919091019291505056fe360894a13ba1a3210667c828492db98dca3e2076cc3735a920a3ca505d382bbca26469706673582212204b1b333eb93f941b679d92446e23c9f513a53e6ecff3b11fe630a6b1796e11ef64736f6c634300081c0033",
  "linkReferences": {},
  "deployedLinkReferences": {}
}