{
  "_format": "hh-sol-artifact-1",
  "contractName": "MarketplaceV1",
  "sourceName": "contracts/logics/MarketplaceV1.sol",
  "abi": [
    {
      "inputs": [],
      "stateMutability": "nonpayable",
      "type": "constructor"
    },
    {
      "inputs": [
        {
          "internalType": "address",
          "name": "target",
          "type": "address"
        }
      ],
      "name": "AddressEmptyCode",
      "type": "error"
    },
    {
      "inputs": [
        {
          "internalType": "address",
          "name": "implementation",
          "type": "address"
        }
      ],
      "name": "ERC1967InvalidImplementation",
      "type": "error"
    },
    {
      "inputs": [],
      "name": "ERC1967NonPayable",
      "type": "error"
    },
    {
      "inputs": [],
      "name": "FailedCall",
      "type": "error"
    },
    {
      "inputs": [],
      "name": "InvalidInitialization",
      "type": "error"
    },
    {
      "inputs": [],
      "name": "NotInitializing",
      "type": "error"
    },
    {
      "inputs": [
        {
          "internalType": "address",
          "name": "owner",
          "type": "address"
        }
      ],
      "name": "OwnableInvalidOwner",
      "type": "error"
    },
    {
      "inputs": [
        {
          "internalType": "address",
          "name": "account",
          "type": "address"
        }
      ],
      "name": "OwnableUnauthorizedAccount",
      "type": "error"
    },
    {
      "inputs": [],
      "name": "ReentrancyGuardReentrantCall",
      "type": "error"
    },
    {
      "inputs": [],
      "name": "UUPSUnauthorizedCallContext",
      "type": "error"
    },
    {
      "inputs": [
        {
          "internalType": "bytes32",
          "name": "slot",
          "type": "bytes32"
        }
      ],
      "name": "UUPSUnsupportedProxiableUUID",
      "type": "error"
    },
    {
      "anonymous": false,
      "inputs": [
        {
          "indexed": false,
          "internalType": "uint64",
          "name": "version",
          "type": "uint64"
        }
      ],
      "name": "Initialized",
      "type": "event"
    },
    {
      "anonymous": false,
      "inputs": [
        {
          "indexed": true,
          "internalType": "address",
          "name": "seller",
          "type": "address"
        },
        {
          "indexed": true,
          "internalType": "address",
          "name": "nftContract",
          "type": "address"
        },
        {
          "indexed": true,
          "internalType": "uint256",
          "name": "tokenId",
          "type": "uint256"
        }
      ],
      "name": "ListingCancelled",
      "type": "event"
    },
    {
      "anonymous": false,
      "inputs": [
        {
          "indexed": true,
          "internalType": "address",
          "name": "seller",
          "type": "address"
        },
        {
          "indexed": true,
          "internalType": "address",
          "name": "nftContract",
          "type": "address"
        },
        {
          "indexed": true,
          "internalType": "uint256",
          "name": "tokenId",
          "type": "uint256"
        },
        {
          "indexed": false,
          "internalType": "uint256",
          "name": "price",
          "type": "uint256"
        }
      ],
      "name": "NFTListed",
      "type": "event"
    },
    {
      "anonymous": false,
      "inputs": [
        {
          "indexed": true,
          "internalType": "address",
          "name": "seller",
          "type": "address"
        },
        {
          "indexed": true,
          "internalType": "address",
          "name": "buyer",
          "type": "address"
        },
        {
          "indexed": true,
          "internalType": "address",
          "name": "nftContract",
          "type": "address"
        },
        {
          "indexed": false,
          "internalType": "uint256",
          "name": "tokenId",
          "type": "uint256"
        },
        {
          "indexed": false,
          "internalType": "uint256",
          "name": "price",
          "type": "uint256"
        }
      ],
      "name": "NFTSold",
      "type": "event"
    },
    {
      "anonymous": false,
      "inputs": [
        {
          "indexed": true,
          "internalType": "address",
          "name": "previousOwner",
          "type": "address"
        },
        {
          "indexed": true,
          "internalType": "address",
          "name": "newOwner",
          "type": "address"
        }
      ],
      "name": "OwnershipTransferred",
      "type": "event"
    },
    {
      "anonymous": false,
      "inputs": [
        {
          "indexed": true,
          "internalType": "address",
          "name": "implementation",
          "type": "address"
        }
      ],
      "name": "Upgraded",
      "type": "event"
    },
    {
      "inputs": [],
      "name": "UPGRADE_INTERFACE_VERSION",
      "outputs": [
        {
          "internalType": "string",
          "name": "",
          "type": "string"
        }
      ],
      "stateMutability": "view",
      "type": "function"
    },
    {
      "inputs": [
        {
          "internalType": "address",
          "name": "nftContract",
          "type": "address"
        },
        {
          "internalType": "uint256",
          "name": "tokenId",
          "type": "uint256"
        }
      ],
      "name": "buyNFT",
      "outputs": [],
      "stateMutability": "nonpayable",
      "type": "function"
    },
    {
      "inputs": [
        {
          "internalType": "address",
          "name": "nftContract",
          "type": "address"
        },
        {
          "internalType": "uint256",
          "name": "tokenId",
          "type": "uint256"
        }
      ],
      "name": "cancelListing",
      "outputs": [],
      "stateMutability": "nonpayable",
      "type": "function"
    },
    {
      "inputs": [],
      "name": "getAllListings",
      "outputs": [
        {
          "components": [
            {
              "internalType": "address",
              "name": "seller",
              "type": "address"
            },
            {
              "internalType": "address",
              "name": "nftContract",
              "type": "address"
            },
            {
              "internalType": "uint256",
              "name": "tokenId",
              "type": "uint256"
            },
            {
              "internalType": "uint256",
              "name": "price",
              "type": "uint256"
            }
          ],
          "internalType": "struct IMarketplace.Listing[]",
          "name": "",
          "type": "tuple[]"
        }
      ],
      "stateMutability": "view",
      "type": "function"
    },
    {
      "inputs": [
        {
          "internalType": "address",
          "name": "nftContract",
          "type": "address"
        },
        {
          "internalType": "uint256",
          "name": "tokenId",
          "type": "uint256"
        }
      ],
      "name": "getListing",
      "outputs": [
        {
          "components": [
            {
              "internalType": "address",
              "name": "seller",
              "type": "address"
            },
            {
              "internalType": "address",
              "name": "nftContract",
              "type": "address"
            },
            {
              "internalType": "uint256",
              "name": "tokenId",
              "type": "uint256"
            },
            {
              "internalType": "uint256",
              "name": "price",
              "type": "uint256"
            }
          ],
          "internalType": "struct IMarketplace.Listing",
          "name": "",
          "type": "tuple"
        }
      ],
      "stateMutability": "view",
      "type": "function"
    },
    {
      "inputs": [
        {
          "internalType": "address",
          "name": "_paymentToken",
          "type": "address"
        },
        {
          "internalType": "address",
          "name": "_owner",
          "type": "address"
        }
      ],
      "name": "initialize",
      "outputs": [],
      "stateMutability": "nonpayable",
      "type": "function"
    },
    {
      "inputs": [
        {
          "internalType": "address",
          "name": "nftContract",
          "type": "address"
        },
        {
          "internalType": "uint256",
          "name": "tokenId",
          "type": "uint256"
        }
      ],
      "name": "isListed",
      "outputs": [
        {
          "internalType": "bool",
          "name": "",
          "type": "bool"
        }
      ],
      "stateMutability": "view",
      "type": "function"
    },
    {
      "inputs": [
        {
          "internalType": "address",
          "name": "nftContract",
          "type": "address"
        },
        {
          "internalType": "uint256",
          "name": "tokenId",
          "type": "uint256"
        },
        {
          "internalType": "uint256",
          "name": "price",
          "type": "uint256"
        }
      ],
      "name": "listNFT",
      "outputs": [],
      "stateMutability": "nonpayable",
      "type": "function"
    },
    {
      "inputs": [],
      "name": "owner",
      "outputs": [
        {
          "internalType": "address",
          "name": "",
          "type": "address"
        }
      ],
      "stateMutability": "view",
      "type": "function"
    },
    {
      "inputs": [],
      "name": "paymentToken",
      "outputs": [
        {
          "internalType": "contract IERC20",
          "name": "",
          "type": "address"
        }
      ],
      "stateMutability": "view",
      "type": "function"
    },
    {
      "inputs": [],
      "name": "proxiableUUID",
      "outputs": [
        {
          "internalType": "bytes32",
          "name": "",
          "type": "bytes32"
        }
      ],
      "stateMutability": "view",
      "type": "function"
    },
    {
      "inputs": [],
      "name": "renounceOwnership",
      "outputs": [],
      "stateMutability": "nonpayable",
      "type": "function"
    },
    {
      "inputs": [
        {
          "internalType": "address",
          "name": "newOwner",
          "type": "address"
        }
      ],
      "name": "transferOwnership",
      "outputs": [],
      "stateMutability": "nonpayable",
      "type": "function"
    },
    {
      "inputs": [
        {
          "internalType": "address",
          "name": "newImplementation",
          "type": "address"
        },
        {
          "internalType": "bytes",
          "name": "data",
          "type": "bytes"
        }
      ],
      "name": "upgradeToAndCall",
      "outputs": [],
      "stateMutability": "payable",
      "type": "function"
    }
  ],
  "bytecode": "0x60a06040523060805234801561001457600080fd5b5061001d610022565b6100d4565b7ff0c57e16840df040f15088dc2f81fe391c3923bec73e23a9662efc9c229c6a00805468010000000000000000900460ff16156100725760405163f92ee8a960e01b815260040160405180910390fd5b80546001600160401b03908116146100d15780546001600160401b0319166001600160401b0390811782556040519081527fc7f505b2f371ae2175ee4913f4499e1f2633a7b5936321eed1cdaeb6115181d29060200160405180910390a15b50565b6080516118de6100fd60003960008181610de501528181610e0e0152610f4f01526118de6000f3fe6080604052600436106100dd5760003560e01c8063a82ba76f1161007f578063ae73ccec11610059578063ae73ccec14610274578063b2ddee0614610296578063cdb3cd25146102b6578063f2fde38b146102e657600080fd5b8063a82ba76f146101f6578063ad05f1b414610216578063ad3cb1cc1461023657600080fd5b806352d1902d116100bb57806352d1902d14610154578063715018a61461017757806388700d1c1461018c5780638da5cb5b146101b957600080fd5b80633013ce29146100e2578063485cc9551461011f5780634f1ef28614610141575b600080fd5b3480156100ee57600080fd5b50600054610102906001600160a01b031681565b6040516001600160a01b0390911681526020015b60405180910390f35b34801561012b57600080fd5b5061013f61013a3660046114e0565b610306565b005b61013f61014f36600461152f565b61042e565b34801561016057600080fd5b5061016961044d565b604051908152602001610116565b34801561018357600080fd5b5061013f61046a565b34801561019857600080fd5b506101ac6101a73660046115fb565b61047e565b6040516101169190611627565b3480156101c557600080fd5b507f9016d09d72d40fdae2fd8ceac6b6234c7706214fd39c1cd1e609a0528c199300546001600160a01b0316610102565b34801561020257600080fd5b5061013f6102113660046115fb565b6104f5565b34801561022257600080fd5b5061013f610231366004611660565b610745565b34801561024257600080fd5b50610267604051806040016040528060058152602001640352e302e360dc1b81525081565b60405161011691906116b9565b34801561028057600080fd5b50610289610b0e565b60405161011691906116ec565b3480156102a257600080fd5b5061013f6102b13660046115fb565b610b9d565b3480156102c257600080fd5b506102d66102d13660046115fb565b610d20565b6040519015158152602001610116565b3480156102f257600080fd5b5061013f610301366004611766565b610d4a565b6000610310610d88565b805490915060ff600160401b820416159067ffffffffffffffff166000811580156103385750825b905060008267ffffffffffffffff1660011480156103555750303b155b905081158015610363575080155b156103815760405163f92ee8a960e01b815260040160405180910390fd5b845467ffffffffffffffff1916600117855583156103ab57845460ff60401b1916600160401b1785555b6103b486610db1565b6103bc610dc2565b6103c4610dca565b600080546001600160a01b0319166001600160a01b038916179055831561042557845460ff60401b19168555604051600181527fc7f505b2f371ae2175ee4913f4499e1f2633a7b5936321eed1cdaeb6115181d29060200160405180910390a15b50505050505050565b610436610dda565b61043f82610e7f565b6104498282610e87565b5050565b6000610457610f44565b5060008051602061186983398151915290565b610472610f8d565b61047c6000610fe8565b565b60408051608080820183526000808352602080840182905283850182905260609384018290526001600160a01b038781168352600180835286842088855283529286902086519485018752805482168552928301541690830152600281015493820193909352600390920154908201525b92915050565b6104fd611059565b6105078282610d20565b6105455760405162461bcd60e51b815260206004820152600a602482015269139bdd081b1a5cdd195960b21b60448201526064015b60405180910390fd5b6001600160a01b038083166000908152600160208181526040808420868552825292839020835160808101855281548616808252938201549095169185019190915260028101549284019290925260039091015460608301523390036105de5760405162461bcd60e51b815260206004820152600e60248201526d21b0b73737ba10313abc9037bbb760911b604482015260640161053c565b600054815160608301516040516323b872dd60e01b81526001600160a01b03909316926323b872dd92610615923392600401611783565b6020604051808303816000875af1158015610634573d6000803e3d6000fd5b505050506040513d601f19601f8201168201806040525081019061065891906117a7565b506040516323b872dd60e01b81526001600160a01b038416906323b872dd9061068990309033908790600401611783565b600060405180830381600087803b1580156106a357600080fd5b505af11580156106b7573d6000803e3d6000fd5b50505050826001600160a01b0316336001600160a01b031682600001516001600160a01b03167f1b81ea9818518fffa07ee623cfd9ce8af1900f3e0c918f2ca4fcfc9745cdc16585856060015160405161071b929190918252602082015260400190565b60405180910390a461072d8383611091565b50610449600160008051602061188983398151915255565b61074d611059565b6000811161078e5760405162461bcd60e51b815260206004820152600e60248201526d05072696365206d757374203e20360941b604482015260640161053c565b6107988383610d20565b156107d65760405162461bcd60e51b815260206004820152600e60248201526d105b1c9958591e481b1a5cdd195960921b604482015260640161053c565b6040516331a9108f60e11b815260048101839052839033906001600160a01b03831690636352211e90602401602060405180830381865afa15801561081f573d6000803e3d6000fd5b505050506040513d601f19601f8201168201806040525081019061084391906117c9565b6001600160a01b0316146108855760405162461bcd60e51b81526020600482015260096024820152682737ba1037bbb732b960b91b604482015260640161053c565b6040516323b872dd60e01b81526001600160a01b038216906323b872dd906108b590339030908890600401611783565b600060405180830381600087803b1580156108cf57600080fd5b505af11580156108e3573d6000803e3d6000fd5b5050505060006040518060800160405280336001600160a01b03168152602001866001600160a01b031681526020018581526020018481525090508060016000876001600160a01b03166001600160a01b03168152602001908152602001600020600086815260200190815260200160002060008201518160000160006101000a8154816001600160a01b0302191690836001600160a01b0316021790555060208201518160010160006101000a8154816001600160a01b0302191690836001600160a01b031602179055506040820151816002015560608201518160030155905050600281908060018154018082558091505060019003906000526020600020906004020160009091909190915060008201518160000160006101000a8154816001600160a01b0302191690836001600160a01b0316021790555060208201518160010160006101000a8154816001600160a01b0302191690836001600160a01b031602179055506040820151816002015560608201518160030155505060028054905060036000876001600160a01b03166001600160a01b0316815260200190815260200160002060008681526020019081526020016000208190555083856001600160a01b0316336001600160a01b03167fbeab3a2bb824b124a8a1eb465eec003338d61b414db132d37e9b3a984fdcf01086604051610ae891815260200190565b60405180910390a45050610b09600160008051602061188983398151915255565b505050565b60606002805480602002602001604051908101604052809291908181526020016000905b82821015610b94576000848152602090819020604080516080810182526004860290920180546001600160a01b039081168452600180830154909116848601526002820154928401929092526003015460608301529083529092019101610b32565b50505050905090565b610ba5611059565b610baf8282610d20565b610be85760405162461bcd60e51b815260206004820152600a602482015269139bdd081b1a5cdd195960b21b604482015260640161053c565b6001600160a01b038083166000908152600160208181526040808420868552825292839020835160808101855281548616808252938201549095169185019190915260028101549284019290925260039091015460608301523314610c7c5760405162461bcd60e51b815260206004820152600a6024820152692737ba1039b2b63632b960b11b604482015260640161053c565b6040516323b872dd60e01b81526001600160a01b038416906323b872dd90610cac90309033908790600401611783565b600060405180830381600087803b158015610cc657600080fd5b505af1158015610cda573d6000803e3d6000fd5b50506040518492506001600160a01b038616915033907fe1bfe61cb157e0896411ccf9a5c40e4c346f7bb6e1d2a44de4a724f0cb5c6fb090600090a461072d8383611091565b6001600160a01b039190911660009081526003602090815260408083209383529290522054151590565b610d52610f8d565b6001600160a01b038116610d7c57604051631e4fbdf760e01b81526000600482015260240161053c565b610d8581610fe8565b50565b6000807ff0c57e16840df040f15088dc2f81fe391c3923bec73e23a9662efc9c229c6a006104ef565b610db96112a5565b610d85816112ca565b61047c6112a5565b610dd26112a5565b61047c6112d2565b306001600160a01b037f0000000000000000000000000000000000000000000000000000000000000000161480610e6157507f00000000000000000000000000000000000000000000000000000000000000006001600160a01b0316610e55600080516020611869833981519152546001600160a01b031690565b6001600160a01b031614155b1561047c5760405163703e46dd60e11b815260040160405180910390fd5b610d85610f8d565b816001600160a01b03166352d1902d6040518163ffffffff1660e01b8152600401602060405180830381865afa925050508015610ee1575060408051601f3d908101601f19168201909252610ede918101906117e6565b60015b610f0957604051634c9c8ce360e01b81526001600160a01b038316600482015260240161053c565b6000805160206118698339815191528114610f3a57604051632a87526960e21b81526004810182905260240161053c565b610b0983836112da565b306001600160a01b037f0000000000000000000000000000000000000000000000000000000000000000161461047c5760405163703e46dd60e11b815260040160405180910390fd5b33610fbf7f9016d09d72d40fdae2fd8ceac6b6234c7706214fd39c1cd1e609a0528c199300546001600160a01b031690565b6001600160a01b03161461047c5760405163118cdaa760e01b815233600482015260240161053c565b7f9016d09d72d40fdae2fd8ceac6b6234c7706214fd39c1cd1e609a0528c19930080546001600160a01b031981166001600160a01b03848116918217845560405192169182907f8be0079c531659141344cd1fd0a4f28419497f9722a3daafe3b4186f6b6457e090600090a3505050565b60008051602061188983398151915280546001190161108b57604051633ee5aeb560e01b815260040160405180910390fd5b60029055565b6001600160a01b0382166000908152600360209081526040808320848452909152812054908190036110c257505050565b6002546000906110d4906001906117ff565b9050806110e26001846117ff565b146111e5576000600282815481106110fc576110fc611820565b600091825260209182902060408051608081018252600490930290910180546001600160a01b0390811684526001808301549091169484019490945260028082015492840192909252600301546060830152909250829161115d90866117ff565b8154811061116d5761116d611820565b60009182526020808320845160049093020180546001600160a01b039384166001600160a01b0319918216178255858301516001830180549186169190921617905560408086015160028301556060909501516003918201558582015190921683529081528282209383015182529290925290208290555b60028054806111f6576111f6611836565b6000828152602080822060046000199094019384020180546001600160a01b03199081168255600182810180548316905560028084018690556003938401869055959096556001600160a01b039990991680845281835260408085208a865284528085208590559084528583528084209884529790915295812080548816815592830180549097169096558101859055909201929092555050565b600160008051602061188983398151915255565b6112ad611330565b61047c57604051631afcd79f60e31b815260040160405180910390fd5b610d526112a5565b6112916112a5565b6112e38261134a565b6040516001600160a01b038316907fbc7cd75a20ee27fd9adebab32041f755214dbc6bffa90cc0225b39da2e5c2d3b90600090a280511561132857610b0982826113af565b610449611425565b600061133a610d88565b54600160401b900460ff16919050565b806001600160a01b03163b60000361138057604051634c9c8ce360e01b81526001600160a01b038216600482015260240161053c565b60008051602061186983398151915280546001600160a01b0319166001600160a01b0392909216919091179055565b6060600080846001600160a01b0316846040516113cc919061184c565b600060405180830381855af49150503d8060008114611407576040519150601f19603f3d011682016040523d82523d6000602084013e61140c565b606091505b509150915061141c858383611444565b95945050505050565b341561047c5760405163b398979f60e01b815260040160405180910390fd5b60608261145957611454826114a3565b61149c565b815115801561147057506001600160a01b0384163b155b1561149957604051639996b31560e01b81526001600160a01b038516600482015260240161053c565b50805b9392505050565b8051156114b257805160208201fd5b60405163d6bda27560e01b815260040160405180910390fd5b6001600160a01b0381168114610d8557600080fd5b600080604083850312156114f357600080fd5b82356114fe816114cb565b9150602083013561150e816114cb565b809150509250929050565b634e487b7160e01b600052604160045260246000fd5b6000806040838503121561154257600080fd5b823561154d816114cb565b9150602083013567ffffffffffffffff81111561156957600080fd5b8301601f8101851361157a57600080fd5b803567ffffffffffffffff81111561159457611594611519565b604051601f8201601f19908116603f0116810167ffffffffffffffff811182821017156115c3576115c3611519565b6040528181528282016020018710156115db57600080fd5b816020840160208301376000602083830101528093505050509250929050565b6000806040838503121561160e57600080fd5b8235611619816114cb565b946020939093013593505050565b81516001600160a01b039081168252602080840151909116908201526040808301519082015260608083015190820152608081016104ef565b60008060006060848603121561167557600080fd5b8335611680816114cb565b95602085013595506040909401359392505050565b60005b838110156116b0578181015183820152602001611698565b50506000910152565b60208152600082518060208401526116d8816040850160208701611695565b601f01601f19169190910160400192915050565b602080825282518282018190526000918401906040840190835b8181101561175b5761174583855180516001600160a01b0390811683526020808301519091169083015260408082015190830152606090810151910152565b6020939093019260809290920191600101611706565b509095945050505050565b60006020828403121561177857600080fd5b813561149c816114cb565b6001600160a01b039384168152919092166020820152604081019190915260600190565b6000602082840312156117b957600080fd5b8151801515811461149c57600080fd5b6000602082840312156117db57600080fd5b815161149c816114cb565b6000602082840312156117f857600080fd5b5051919050565b818103818111156104ef57634e487b7160e01b600052601160045260246000fd5b634e487b7160e01b600052603260045260246000fd5b634e487b7160e01b600052603160045260246000fd5b6000825161185e818460208701611695565b919091019291505056fe360894a13ba1a3210667c828492db98dca3e2076cc3735a920a3ca505d382bbc9b779b17422d0df92223018b32b4d1fa46e071723d6817e2486d003becc55f00a26469706673582212208bfa3647cb54c03e93e69ffa9f2eeda465d88d089edeb3ada27ddbf34c16063e64736f6c634300081c0033",
  "linkReferences": {},
  "deployedLinkReferences": {}
}