{
  "_format": "hh-sol-artifact-1",
  "contractName": "NFTCollectionV1",
  "sourceName": "contracts/logics/NFTCollectionV1.sol",
  "abi": [
    {
      "inputs": [],
      "stateMutability": "nonpayable",
      "type": "constructor"
    },
    {
      "inputs": [
        {
          "internalType": "address",
          "name": "target",
          "type": "address"
        }
      ],
      "name": "AddressEmptyCode",
      "type": "error"
    },
    {
      "inputs": [
        {
          "internalType": "address",
          "name": "implementation",
          "type": "address"
        }
      ],
      "name": "ERC1967InvalidImplementation",
      "type": "error"
    },
    {
      "inputs": [],
      "name": "ERC1967NonPayable",
      "type": "error"
    },
    {
      "inputs": [],
      "name": "ERC721EnumerableForbiddenBatchMint",
      "type": "error"
    },
    {
      "inputs": [
        {
          "internalType": "address",
          "name": "sender",
          "type": "address"
        },
        {
          "internalType": "uint256",
          "name": "tokenId",
          "type": "uint256"
        },
        {
          "internalType": "address",
          "name": "owner",
          "type": "address"
        }
      ],
      "name": "ERC721IncorrectOwner",
      "type": "error"
    },
    {
      "inputs": [
        {
          "internalType": "address",
          "name": "operator",
          "type": "address"
        },
        {
          "internalType": "uint256",
          "name": "tokenId",
          "type": "uint256"
        }
      ],
      "name": "ERC721InsufficientApproval",
      "type": "error"
    },
    {
      "inputs": [
        {
          "internalType": "address",
          "name": "approver",
          "type": "address"
        }
      ],
      "name": "ERC721InvalidApprover",
      "type": "error"
    },
    {
      "inputs": [
        {
          "internalType": "address",
          "name": "operator",
          "type": "address"
        }
      ],
      "name": "ERC721InvalidOperator",
      "type": "error"
    },
    {
      "inputs": [
        {
          "internalType": "address",
          "name": "owner",
          "type": "address"
        }
      ],
      "name": "ERC721InvalidOwner",
      "type": "error"
    },
    {
      "inputs": [
        {
          "internalType": "address",
          "name": "receiver",
          "type": "address"
        }
      ],
      "name": "ERC721InvalidReceiver",
      "type": "error"
    },
    {
      "inputs": [
        {
          "internalType": "address",
          "name": "sender",
          "type": "address"
        }
      ],
      "name": "ERC721InvalidSender",
      "type": "error"
    },
    {
      "inputs": [
        {
          "internalType": "uint256",
          "name": "tokenId",
          "type": "uint256"
        }
      ],
      "name": "ERC721NonexistentToken",
      "type": "error"
    },
    {
      "inputs": [
        {
          "internalType": "address",
          "name": "owner",
          "type": "address"
        },
        {
          "internalType": "uint256",
          "name": "index",
          "type": "uint256"
        }
      ],
      "name": "ERC721OutOfBoundsIndex",
      "type": "error"
    },
    {
      "inputs": [],
      "name": "FailedCall",
      "type": "error"
    },
    {
      "inputs": [],
      "name": "InvalidInitialization",
      "type": "error"
    },
    {
      "inputs": [],
      "name": "NotInitializing",
      "type": "error"
    },
    {
      "inputs": [
        {
          "internalType": "address",
          "name": "owner",
          "type": "address"
        }
      ],
      "name": "OwnableInvalidOwner",
      "type": "error"
    },
    {
      "inputs": [
        {
          "internalType": "address",
          "name": "account",
          "type": "address"
        }
      ],
      "name": "OwnableUnauthorizedAccount",
      "type": "error"
    },
    {
      "inputs": [],
      "name": "UUPSUnauthorizedCallContext",
      "type": "error"
    },
    {
      "inputs": [
        {
          "internalType": "bytes32",
          "name": "slot",
          "type": "bytes32"
        }
      ],
      "name": "UUPSUnsupportedProxiableUUID",
      "type": "error"
    },
    {
      "anonymous": false,
      "inputs": [
        {
          "indexed": true,
          "internalType": "address",
          "name": "owner",
          "type": "address"
        },
        {
          "indexed": true,
          "internalType": "address",
          "name": "approved",
          "type": "address"
        },
        {
          "indexed": true,
          "internalType": "uint256",
          "name": "tokenId",
          "type": "uint256"
        }
      ],
      "name": "Approval",
      "type": "event"
    },
    {
      "anonymous": false,
      "inputs": [
        {
          "indexed": true,
          "internalType": "address",
          "name": "owner",
          "type": "address"
        },
        {
          "indexed": true,
          "internalType": "address",
          "name": "operator",
          "type": "address"
        },
        {
          "indexed": false,
          "internalType": "bool",
          "name": "approved",
          "type": "bool"
        }
      ],
      "name": "ApprovalForAll",
      "type": "event"
    },
    {
      "anonymous": false,
      "inputs": [
        {
          "indexed": false,
          "internalType": "uint256",
          "name": "_fromTokenId",
          "type": "uint256"
        },
        {
          "indexed": false,
          "internalType": "uint256",
          "name": "_toTokenId",
          "type": "uint256"
        }
      ],
      "name": "BatchMetadataUpdate",
      "type": "event"
    },
    {
      "anonymous": false,
      "inputs": [
        {
          "indexed": false,
          "internalType": "uint64",
          "name": "version",
          "type": "uint64"
        }
      ],
      "name": "Initialized",
      "type": "event"
    },
    {
      "anonymous": false,
      "inputs": [
        {
          "indexed": false,
          "internalType": "uint256",
          "name": "_tokenId",
          "type": "uint256"
        }
      ],
      "name": "MetadataUpdate",
      "type": "event"
    },
    {
      "anonymous": false,
      "inputs": [
        {
          "indexed": true,
          "internalType": "address",
          "name": "to",
          "type": "address"
        },
        {
          "indexed": true,
          "internalType": "uint256",
          "name": "tokenId",
          "type": "uint256"
        },
        {
          "indexed": false,
          "internalType": "string",
          "name": "tokenURI",
          "type": "string"
        }
      ],
      "name": "NFTMinted",
      "type": "event"
    },
    {
      "anonymous": false,
      "inputs": [
        {
          "indexed": true,
          "internalType": "address",
          "name": "previousOwner",
          "type": "address"
        },
        {
          "indexed": true,
          "internalType": "address",
          "name": "newOwner",
          "type": "address"
        }
      ],
      "name": "OwnershipTransferred",
      "type": "event"
    },
    {
      "anonymous": false,
      "inputs": [
        {
          "indexed": true,
          "internalType": "address",
          "name": "from",
          "type": "address"
        },
        {
          "indexed": true,
          "internalType": "address",
          "name": "to",
          "type": "address"
        },
        {
          "indexed": true,
          "internalType": "uint256",
          "name": "tokenId",
          "type": "uint256"
        }
      ],
      "name": "Transfer",
      "type": "event"
    },
    {
      "anonymous": false,
      "inputs": [
        {
          "indexed": true,
          "internalType": "address",
          "name": "implementation",
          "type": "address"
        }
      ],
      "name": "Upgraded",
      "type": "event"
    },
    {
      "inputs": [],
      "name": "UPGRADE_INTERFACE_VERSION",
      "outputs": [
        {
          "internalType": "string",
          "name": "",
          "type": "string"
        }
      ],
      "stateMutability": "view",
      "type": "function"
    },
    {
      "inputs": [
        {
          "internalType": "address",
          "name": "to",
          "type": "address"
        },
        {
          "internalType": "uint256",
          "name": "tokenId",
          "type": "uint256"
        }
      ],
      "name": "approve",
      "outputs": [],
      "stateMutability": "nonpayable",
      "type": "function"
    },
    {
      "inputs": [
        {
          "internalType": "address",
          "name": "owner",
          "type": "address"
        }
      ],
      "name": "balanceOf",
      "outputs": [
        {
          "internalType": "uint256",
          "name": "",
          "type": "uint256"
        }
      ],
      "stateMutability": "view",
      "type": "function"
    },
    {
      "inputs": [],
      "name": "baseURI",
      "outputs": [
        {
          "internalType": "string",
          "name": "",
          "type": "string"
        }
      ],
      "stateMutability": "view",
      "type": "function"
    },
    {
      "inputs": [
        {
          "internalType": "string[]",
          "name": "uris",
          "type": "string[]"
        }
      ],
      "name": "batchMint",
      "outputs": [
        {
          "internalType": "uint256",
          "name": "startTokenId",
          "type": "uint256"
        }
      ],
      "stateMutability": "nonpayable",
      "type": "function"
    },
    {
      "inputs": [
        {
          "internalType": "uint256",
          "name": "tokenId",
          "type": "uint256"
        }
      ],
      "name": "exists",
      "outputs": [
        {
          "internalType": "bool",
          "name": "",
          "type": "bool"
        }
      ],
      "stateMutability": "view",
      "type": "function"
    },
    {
      "inputs": [
        {
          "internalType": "uint256",
          "name": "tokenId",
          "type": "uint256"
        }
      ],
      "name": "getApproved",
      "outputs": [
        {
          "internalType": "address",
          "name": "",
          "type": "address"
        }
      ],
      "stateMutability": "view",
      "type": "function"
    },
    {
      "inputs": [],
      "name": "getBaseURI",
      "outputs": [
        {
          "internalType": "string",
          "name": "",
          "type": "string"
        }
      ],
      "stateMutability": "view",
      "type": "function"
    },
    {
      "inputs": [
        {
          "internalType": "string",
          "name": "_name",
          "type": "string"
        },
        {
          "internalType": "string",
          "name": "_symbol",
          "type": "string"
        },
        {
          "internalType": "uint256",
          "name": "_maxSupply",
          "type": "uint256"
        },
        {
          "internalType": "address",
          "name": "_owner",
          "type": "address"
        }
      ],
      "name": "initialize",
      "outputs": [],
      "stateMutability": "nonpayable",
      "type": "function"
    },
    {
      "inputs": [
        {
          "internalType": "address",
          "name": "owner",
          "type": "address"
        },
        {
          "internalType": "address",
          "name": "operator",
          "type": "address"
        }
      ],
      "name": "isApprovedForAll",
      "outputs": [
        {
          "internalType": "bool",
          "name": "",
          "type": "bool"
        }
      ],
      "stateMutability": "view",
      "type": "function"
    },
    {
      "inputs": [],
      "name": "maxSupply",
      "outputs": [
        {
          "internalType": "uint256",
          "name": "",
          "type": "uint256"
        }
      ],
      "stateMutability": "view",
      "type": "function"
    },
    {
      "inputs": [
        {
          "internalType": "string",
          "name": "uri",
          "type": "string"
        }
      ],
      "name": "mint",
      "outputs": [
        {
          "internalType": "uint256",
          "name": "tokenId",
          "type": "uint256"
        }
      ],
      "stateMutability": "nonpayable",
      "type": "function"
    },
    {
      "inputs": [
        {
          "internalType": "address",
          "name": "to",
          "type": "address"
        },
        {
          "internalType": "string",
          "name": "uri",
          "type": "string"
        }
      ],
      "name": "mintTo",
      "outputs": [
        {
          "internalType": "uint256",
          "name": "tokenId",
          "type": "uint256"
        }
      ],
      "stateMutability": "nonpayable",
      "type": "function"
    },
    {
      "inputs": [],
      "name": "name",
      "outputs": [
        {
          "internalType": "string",
          "name": "",
          "type": "string"
        }
      ],
      "stateMutability": "view",
      "type": "function"
    },
    {
      "inputs": [],
      "name": "owner",
      "outputs": [
        {
          "internalType": "address",
          "name": "",
          "type": "address"
        }
      ],
      "stateMutability": "view",
      "type": "function"
    },
    {
      "inputs": [
        {
          "internalType": "uint256",
          "name": "tokenId",
          "type": "uint256"
        }
      ],
      "name": "ownerOf",
      "outputs": [
        {
          "internalType": "address",
          "name": "",
          "type": "address"
        }
      ],
      "stateMutability": "view",
      "type": "function"
    },
    {
      "inputs": [],
      "name": "proxiableUUID",
      "outputs": [
        {
          "internalType": "bytes32",
          "name": "",
          "type": "bytes32"
        }
      ],
      "stateMutability": "view",
      "type": "function"
    },
    {
      "inputs": [],
      "name": "renounceOwnership",
      "outputs": [],
      "stateMutability": "nonpayable",
      "type": "function"
    },
    {
      "inputs": [
        {
          "internalType": "address",
          "name": "to",
          "type": "address"
        },
        {
          "internalType": "string",
          "name": "uri",
          "type": "string"
        }
      ],
      "name": "safeMint",
      "outputs": [
        {
          "internalType": "uint256",
          "name": "tokenId",
          "type": "uint256"
        }
      ],
      "stateMutability": "nonpayable",
      "type": "function"
    },
    {
      "inputs": [
        {
          "internalType": "address",
          "name": "from",
          "type": "address"
        },
        {
          "internalType": "address",
          "name": "to",
          "type": "address"
        },
        {
          "internalType": "uint256",
          "name": "tokenId",
          "type": "uint256"
        }
      ],
      "name": "safeTransferFrom",
      "outputs": [],
      "stateMutability": "nonpayable",
      "type": "function"
    },
    {
      "inputs": [
        {
          "internalType": "address",
          "name": "from",
          "type": "address"
        },
        {
          "internalType": "address",
          "name": "to",
          "type": "address"
        },
        {
          "internalType": "uint256",
          "name": "tokenId",
          "type": "uint256"
        },
        {
          "internalType": "bytes",
          "name": "data",
          "type": "bytes"
        }
      ],
      "name": "safeTransferFrom",
      "outputs": [],
      "stateMutability": "nonpayable",
      "type": "function"
    },
    {
      "inputs": [
        {
          "internalType": "address",
          "name": "operator",
          "type": "address"
        },
        {
          "internalType": "bool",
          "name": "approved",
          "type": "bool"
        }
      ],
      "name": "setApprovalForAll",
      "outputs": [],
      "stateMutability": "nonpayable",
      "type": "function"
    },
    {
      "inputs": [
        {
          "internalType": "string",
          "name": "newBaseURI",
          "type": "string"
        }
      ],
      "name": "setBaseURI",
      "outputs": [],
      "stateMutability": "nonpayable",
      "type": "function"
    },
    {
      "inputs": [
        {
          "internalType": "uint256",
          "name": "_maxSupply",
          "type": "uint256"
        }
      ],
      "name": "setMaxSupply",
      "outputs": [],
      "stateMutability": "nonpayable",
      "type": "function"
    },
    {
      "inputs": [
        {
          "internalType": "bytes4",
          "name": "interfaceId",
          "type": "bytes4"
        }
      ],
      "name": "supportsInterface",
      "outputs": [
        {
          "internalType": "bool",
          "name": "",
          "type": "bool"
        }
      ],
      "stateMutability": "view",
      "type": "function"
    },
    {
      "inputs": [],
      "name": "symbol",
      "outputs": [
        {
          "internalType": "string",
          "name": "",
          "type": "string"
        }
      ],
      "stateMutability": "view",
      "type": "function"
    },
    {
      "inputs": [
        {
          "internalType": "uint256",
          "name": "index",
          "type": "uint256"
        }
      ],
      "name": "tokenByIndex",
      "outputs": [
        {
          "internalType": "uint256",
          "name": "",
          "type": "uint256"
        }
      ],
      "stateMutability": "view",
      "type": "function"
    },
    {
      "inputs": [
        {
          "internalType": "address",
          "name": "owner",
          "type": "address"
        },
        {
          "internalType": "uint256",
          "name": "index",
          "type": "uint256"
        }
      ],
      "name": "tokenOfOwnerByIndex",
      "outputs": [
        {
          "internalType": "uint256",
          "name": "",
          "type": "uint256"
        }
      ],
      "stateMutability": "view",
      "type": "function"
    },
    {
      "inputs": [
        {
          "internalType": "uint256",
          "name": "tokenId",
          "type": "uint256"
        }
      ],
      "name": "tokenURI",
      "outputs": [
        {
          "internalType": "string",
          "name": "",
          "type": "string"
        }
      ],
      "stateMutability": "view",
      "type": "function"
    },
    {
      "inputs": [
        {
          "internalType": "address",
          "name": "owner",
          "type": "address"
        }
      ],
      "name": "tokensOfOwner",
      "outputs": [
        {
          "internalType": "uint256[]",
          "name": "",
          "type": "uint256[]"
        }
      ],
      "stateMutability": "view",
      "type": "function"
    },
    {
      "inputs": [],
      "name": "totalMinted",
      "outputs": [
        {
          "internalType": "uint256",
          "name": "",
          "type": "uint256"
        }
      ],
      "stateMutability": "view",
      "type": "function"
    },
    {
      "inputs": [],
      "name": "totalSupply",
      "outputs": [
        {
          "internalType": "uint256",
          "name": "",
          "type": "uint256"
        }
      ],
      "stateMutability": "view",
      "type": "function"
    },
    {
      "inputs": [
        {
          "internalType": "address",
          "name": "from",
          "type": "address"
        },
        {
          "internalType": "address",
          "name": "to",
          "type": "address"
        },
        {
          "internalType": "uint256",
          "name": "tokenId",
          "type": "uint256"
        }
      ],
      "name": "transferFrom",
      "outputs": [],
      "stateMutability": "nonpayable",
      "type": "function"
    },
    {
      "inputs": [
        {
          "internalType": "address",
          "name": "newOwner",
          "type": "address"
        }
      ],
      "name": "transferOwnership",
      "outputs": [],
      "stateMutability": "nonpayable",
      "type": "function"
    },
    {
      "inputs": [
        {
          "internalType": "address",
          "name": "newImplementation",
          "type": "address"
        },
        {
          "internalType": "bytes",
          "name": "data",
          "type": "bytes"
        }
      ],
      "name": "upgradeToAndCall",
      "outputs": [],
      "stateMutability": "payable",
      "type": "function"
    }
  ],
  "bytecode": "0x60a06040523060805234801561001457600080fd5b5061001d610022565b6100d4565b7ff0c57e16840df040f15088dc2f81fe391c3923bec73e23a9662efc9c229c6a00805468010000000000000000900460ff16156100725760405163f92ee8a960e01b815260040160405180910390fd5b80546001600160401b03908116146100d15780546001600160401b0319166001600160401b0390811782556040519081527fc7f505b2f371ae2175ee4913f4499e1f2633a7b5936321eed1cdaeb6115181d29060200160405180910390a15b50565b608051612df96100fd600039600081816113cf015281816113f801526115730152612df96000f3fe6080604052600436106102035760003560e01c80636f8b44b011610118578063ad3cb1cc116100a0578063d204c45e1161006f578063d204c45e146105f5578063d5abeb0114610615578063d85d3d271461062b578063e985e9c51461064b578063f2fde38b1461066b57600080fd5b8063ad3cb1cc14610564578063b88d4fde14610595578063bd3a13f6146105b5578063c87b56dd146105d557600080fd5b80638462151c116100e75780638462151c146104b05780638da5cb5b146104dd57806395d89b411461051a578063a22cb4651461052f578063a2309ff81461054f57600080fd5b80636f8b44b01461044657806370a0823114610466578063714c539814610486578063715018a61461049b57600080fd5b806342842e0e1161019b57806352d1902d1161016a57806352d1902d146103bc57806355f804b3146103d15780635bcdf207146103f15780636352211e146104115780636c0360eb1461043157600080fd5b806342842e0e146103495780634f1ef286146103695780634f558e791461037c5780634f6ccce71461039c57600080fd5b8063095ea7b3116101d7578063095ea7b3146102c557806318160ddd146102e757806323b872dd146103095780632f745c591461032957600080fd5b806275a3171461020857806301ffc9a71461023b57806306fdde031461026b578063081812fc1461028d575b600080fd5b34801561021457600080fd5b50610228610223366004612494565b61068b565b6040519081526020015b60405180910390f35b34801561024757600080fd5b5061025b6102563660046124fc565b610797565b6040519015158152602001610232565b34801561027757600080fd5b506102806107a8565b6040516102329190612569565b34801561029957600080fd5b506102ad6102a836600461257c565b61084c565b6040516001600160a01b039091168152602001610232565b3480156102d157600080fd5b506102e56102e0366004612595565b610861565b005b3480156102f357600080fd5b50600080516020612da483398151915254610228565b34801561031557600080fd5b506102e56103243660046125bf565b610870565b34801561033557600080fd5b50610228610344366004612595565b6108fb565b34801561035557600080fd5b506102e56103643660046125bf565b61096f565b6102e56103773660046126a6565b61098f565b34801561038857600080fd5b5061025b61039736600461257c565b6109aa565b3480156103a857600080fd5b506102286103b736600461257c565b6109c7565b3480156103c857600080fd5b50610228610a3f565b3480156103dd57600080fd5b506102e56103ec3660046126f3565b610a5c565b3480156103fd57600080fd5b5061022861040c366004612734565b610a71565b34801561041d57600080fd5b506102ad61042c36600461257c565b610c0a565b34801561043d57600080fd5b50610280610c15565b34801561045257600080fd5b506102e561046136600461257c565b610ca3565b34801561047257600080fd5b506102286104813660046127a9565b610cfa565b34801561049257600080fd5b50610280610d56565b3480156104a757600080fd5b506102e5610de8565b3480156104bc57600080fd5b506104d06104cb3660046127a9565b610dfc565b60405161023291906127c4565b3480156104e957600080fd5b507f9016d09d72d40fdae2fd8ceac6b6234c7706214fd39c1cd1e609a0528c199300546001600160a01b03166102ad565b34801561052657600080fd5b50610280610e93565b34801561053b57600080fd5b506102e561054a366004612807565b610ed2565b34801561055b57600080fd5b50600054610228565b34801561057057600080fd5b50610280604051806040016040528060058152602001640352e302e360dc1b81525081565b3480156105a157600080fd5b506102e56105b0366004612843565b610edd565b3480156105c157600080fd5b506102e56105d03660046128aa565b610ef5565b3480156105e157600080fd5b506102806105f036600461257c565b611019565b34801561060157600080fd5b50610228610610366004612494565b611024565b34801561062157600080fd5b5061022860015481565b34801561063757600080fd5b506102286106463660046126f3565b6110a0565b34801561065757600080fd5b5061025b61066636600461292b565b6111a0565b34801561067757600080fd5b506102e56106863660046127a9565b6111ed565b600061069561122b565b60015415806106a75750600154600054105b6106ed5760405162461bcd60e51b815260206004820152601260248201527113585e081cdd5c1c1b1e481c995858da195960721b60448201526064015b60405180910390fd5b6000805490806106fc83612974565b91905055905061070c8482611286565b61074c8184848080601f0160208091040260200160405190810160405280939291908181526020018383808284376000920191909152506112a092505050565b80846001600160a01b03167fd35bb95e09c04b219e35047ce7b7b300e3384264ef84a40456943dbc0fc17c1485856040516107889291906129b6565b60405180910390a39392505050565b60006107a282611313565b92915050565b600080516020612d6483398151915280546060919081906107c8906129ca565b80601f01602080910402602001604051908101604052809291908181526020018280546107f4906129ca565b80156108415780601f1061081657610100808354040283529160200191610841565b820191906000526020600020905b81548152906001019060200180831161082457829003601f168201915b505050505091505090565b600061085782611338565b506107a282611370565b61086c8282336113aa565b5050565b6001600160a01b03821661089a57604051633250574960e11b8152600060048201526024016106e4565b60006108a78383336113b7565b9050836001600160a01b0316816001600160a01b0316146108f5576040516364283d7b60e01b81526001600160a01b03808616600483015260248201849052821660448201526064016106e4565b50505050565b6000600080516020612d4483398151915261091584610cfa565b83106109465760405163295f44f760e21b81526001600160a01b0385166004820152602481018490526044016106e4565b6001600160a01b0384166000908152602091825260408082208583529092522054905092915050565b61098a83838360405180602001604052806000815250610edd565b505050565b6109976113c4565b6109a082611469565b61086c8282611471565b6000806109b68361152e565b6001600160a01b0316141592915050565b6000600080516020612d448339815191526109ee600080516020612da48339815191525490565b8310610a175760405163295f44f760e21b815260006004820152602481018490526044016106e4565b806002018381548110610a2c57610a2c612a04565b9060005260206000200154915050919050565b6000610a49611568565b50600080516020612d8483398151915290565b610a6461122b565b600261098a828483612a61565b600081610aad5760405162461bcd60e51b815260206004820152600a602482015269456d707479205552497360b01b60448201526064016106e4565b6001541580610acb5750600154600054610ac8908490612b20565b11155b610b0c5760405162461bcd60e51b815260206004820152601260248201527145786365656473206d617820737570706c7960701b60448201526064016106e4565b600054905060005b82811015610c0357600080548180610b2b83612974565b919050559050610b3b3382611286565b610b9d81868685818110610b5157610b51612a04565b9050602002810190610b639190612b33565b8080601f0160208091040260200160405190810160405280939291908181526020018383808284376000920191909152506112a092505050565b80337fd35bb95e09c04b219e35047ce7b7b300e3384264ef84a40456943dbc0fc17c14878786818110610bd257610bd2612a04565b9050602002810190610be49190612b33565b604051610bf29291906129b6565b60405180910390a350600101610b14565b5092915050565b60006107a282611338565b60028054610c22906129ca565b80601f0160208091040260200160405190810160405280929190818152602001828054610c4e906129ca565b8015610c9b5780601f10610c7057610100808354040283529160200191610c9b565b820191906000526020600020905b815481529060010190602001808311610c7e57829003601f168201915b505050505081565b610cab61122b565b801580610cba57506000548110155b610cf55760405162461bcd60e51b815260206004820152600c60248201526b10995b1bddc81b5a5b9d195960a21b60448201526064016106e4565b600155565b6000600080516020612d648339815191526001600160a01b038316610d35576040516322718ad960e21b8152600060048201526024016106e4565b6001600160a01b039092166000908152600390920160205250604090205490565b606060028054610d65906129ca565b80601f0160208091040260200160405190810160405280929190818152602001828054610d91906129ca565b8015610dde5780601f10610db357610100808354040283529160200191610dde565b820191906000526020600020905b815481529060010190602001808311610dc157829003601f168201915b5050505050905090565b610df061122b565b610dfa60006115b1565b565b60606000610e0983610cfa565b90506000816001600160401b03811115610e2557610e256125fc565b604051908082528060200260200182016040528015610e4e578160200160208202803683370190505b50905060005b82811015610e8b57610e6685826108fb565b828281518110610e7857610e78612a04565b6020908102919091010152600101610e54565b509392505050565b7f80bb2b638cc20bc4d0a60d66940f3ab4a00c1d7b313497ca82fb0b4ab00793018054606091600080516020612d64833981519152916107c8906129ca565b61086c338383611622565b610ee8848484610870565b6108f533858585856116d3565b6000610eff6117fe565b805490915060ff600160401b82041615906001600160401b0316600081158015610f265750825b90506000826001600160401b03166001148015610f425750303b155b905081158015610f50575080155b15610f6e5760405163f92ee8a960e01b815260040160405180910390fd5b845467ffffffffffffffff191660011785558315610f9857845460ff60401b1916600160401b1785555b610fa28989611827565b610faa611839565b610fb2611839565b610fbb86611841565b610fc3611839565b6001879055831561100e57845460ff60401b19168555604051600181527fc7f505b2f371ae2175ee4913f4499e1f2633a7b5936321eed1cdaeb6115181d29060200160405180910390a15b505050505050505050565b60606107a282611852565b600061102e61122b565b6040516275a31760e01b815230906275a3179061105390879087908790600401612b79565b6020604051808303816000875af1158015611072573d6000803e3d6000fd5b505050506040513d601f19601f820116820180604052508101906110969190612b9e565b90505b9392505050565b6000600154600014806110b65750600154600054105b6110f75760405162461bcd60e51b815260206004820152601260248201527113585e081cdd5c1c1b1e481c995858da195960721b60448201526064016106e4565b60008054908061110683612974565b9190505590506111163382611286565b6111568184848080601f0160208091040260200160405190810160405280939291908181526020018383808284376000920191909152506112a092505050565b80336001600160a01b03167fd35bb95e09c04b219e35047ce7b7b300e3384264ef84a40456943dbc0fc17c1485856040516111929291906129b6565b60405180910390a392915050565b6001600160a01b0391821660009081527f80bb2b638cc20bc4d0a60d66940f3ab4a00c1d7b313497ca82fb0b4ab00793056020908152604080832093909416825291909152205460ff1690565b6111f561122b565b6001600160a01b03811661121f57604051631e4fbdf760e01b8152600060048201526024016106e4565b611228816115b1565b50565b3361125d7f9016d09d72d40fdae2fd8ceac6b6234c7706214fd39c1cd1e609a0528c199300546001600160a01b031690565b6001600160a01b031614610dfa5760405163118cdaa760e01b81523360048201526024016106e4565b61086c82826040518060200160405280600081525061197a565b60008281527f0542a41881ee128a365a727b282c86fa859579490b9bb45aab8503648c8e7900602081905260409091206112da8382612bb7565b506040518381527ff8e1a15aba9398e019f0b49df1a4fde98ee17ae345cb5f6b5e2c27f5033e8ce79060200160405180910390a1505050565b60006001600160e01b0319821663780e9d6360e01b14806107a257506107a282611992565b6000806113448361152e565b90506001600160a01b0381166107a257604051637e27328960e01b8152600481018490526024016106e4565b60009081527f80bb2b638cc20bc4d0a60d66940f3ab4a00c1d7b313497ca82fb0b4ab007930460205260409020546001600160a01b031690565b61098a83838360016119b7565b6000611096848484611acd565b306001600160a01b037f000000000000000000000000000000000000000000000000000000000000000016148061144b57507f00000000000000000000000000000000000000000000000000000000000000006001600160a01b031661143f600080516020612d84833981519152546001600160a01b031690565b6001600160a01b031614155b15610dfa5760405163703e46dd60e11b815260040160405180910390fd5b61122861122b565b816001600160a01b03166352d1902d6040518163ffffffff1660e01b8152600401602060405180830381865afa9250505080156114cb575060408051601f3d908101601f191682019092526114c891810190612b9e565b60015b6114f357604051634c9c8ce360e01b81526001600160a01b03831660048201526024016106e4565b600080516020612d84833981519152811461152457604051632a87526960e21b8152600481018290526024016106e4565b61098a8383611bc6565b60009081527f80bb2b638cc20bc4d0a60d66940f3ab4a00c1d7b313497ca82fb0b4ab007930260205260409020546001600160a01b031690565b306001600160a01b037f00000000000000000000000000000000000000000000000000000000000000001614610dfa5760405163703e46dd60e11b815260040160405180910390fd5b7f9016d09d72d40fdae2fd8ceac6b6234c7706214fd39c1cd1e609a0528c19930080546001600160a01b031981166001600160a01b03848116918217845560405192169182907f8be0079c531659141344cd1fd0a4f28419497f9722a3daafe3b4186f6b6457e090600090a3505050565b600080516020612d648339815191526001600160a01b03831661166357604051630b61174360e31b81526001600160a01b03841660048201526024016106e4565b6001600160a01b038481166000818152600584016020908152604080832094881680845294825291829020805460ff191687151590811790915591519182527f17307eab39ab6107e8899845ad3d59bd9653f200f220920489ca2b5937696c31910160405180910390a350505050565b6001600160a01b0383163b156117f757604051630a85bd0160e11b81526001600160a01b0384169063150b7a0290611715908890889087908790600401612c75565b6020604051808303816000875af1925050508015611750575060408051601f3d908101601f1916820190925261174d91810190612cb2565b60015b6117b9573d80801561177e576040519150601f19603f3d011682016040523d82523d6000602084013e611783565b606091505b5080516000036117b157604051633250574960e11b81526001600160a01b03851660048201526024016106e4565b805160208201fd5b6001600160e01b03198116630a85bd0160e11b146117f557604051633250574960e11b81526001600160a01b03851660048201526024016106e4565b505b5050505050565b6000807ff0c57e16840df040f15088dc2f81fe391c3923bec73e23a9662efc9c229c6a006107a2565b61182f611c1c565b61086c8282611c41565b610dfa611c1c565b611849611c1c565b61122881611c72565b60607f0542a41881ee128a365a727b282c86fa859579490b9bb45aab8503648c8e790061187e83611338565b5060008381526020829052604081208054611898906129ca565b80601f01602080910402602001604051908101604052809291908181526020018280546118c4906129ca565b80156119115780601f106118e657610100808354040283529160200191611911565b820191906000526020600020905b8154815290600101906020018083116118f457829003601f168201915b505050505090506000611922610d56565b9050805160000361193557509392505050565b81511561196857808260405160200161194f929190612ccf565b6040516020818303038152906040529350505050919050565b61197185611c7a565b95945050505050565b6119848383611ce1565b61098a3360008585856116d3565b60006001600160e01b03198216632483248360e11b14806107a257506107a282611d46565b600080516020612d6483398151915281806119da57506001600160a01b03831615155b15611a9c5760006119ea85611338565b90506001600160a01b03841615801590611a165750836001600160a01b0316816001600160a01b031614155b8015611a295750611a2781856111a0565b155b15611a525760405163a9fbf51f60e01b81526001600160a01b03851660048201526024016106e4565b8215611a9a5784866001600160a01b0316826001600160a01b03167f8c5be1e5ebec7d5bd14f71427d1e84f3dd0314c0f7b2291e5b200ac8c7c3b92560405160405180910390a45b505b600093845260040160205250506040902080546001600160a01b0319166001600160a01b0392909216919091179055565b600080611adb858585611d96565b90506001600160a01b038116611b6457611b5f84600080516020612da4833981519152805460008381527f645e039705490088daad89bae25049a34f4a9072d398537b1ab2425f24cbed0360205260408120829055600182018355919091527fa42f15e5d656f8155fd7419d740a6073999f19cd6e061449ce4a257150545bf20155565b611b87565b846001600160a01b0316816001600160a01b031614611b8757611b878185611ea0565b6001600160a01b038516611ba357611b9e84611f3c565b611096565b846001600160a01b0316816001600160a01b031614611096576110968585612013565b611bcf8261206e565b6040516001600160a01b038316907fbc7cd75a20ee27fd9adebab32041f755214dbc6bffa90cc0225b39da2e5c2d3b90600090a2805115611c145761098a82826120d3565b61086c612140565b611c2461215f565b610dfa57604051631afcd79f60e31b815260040160405180910390fd5b611c49611c1c565b600080516020612d6483398151915280611c638482612bb7565b50600181016108f58382612bb7565b6111f5611c1c565b6060611c8582611338565b506000611c90610d56565b90506000815111611cb05760405180602001604052806000815250611099565b80611cba84612179565b604051602001611ccb929190612ccf565b6040516020818303038152906040529392505050565b6001600160a01b038216611d0b57604051633250574960e11b8152600060048201526024016106e4565b6000611d19838360006113b7565b90506001600160a01b0381161561098a576040516339e3563760e11b8152600060048201526024016106e4565b60006001600160e01b031982166380ac58cd60e01b1480611d7757506001600160e01b03198216635b5e139f60e01b145b806107a257506301ffc9a760e01b6001600160e01b03198316146107a2565b6000600080516020612d6483398151915281611db18561152e565b90506001600160a01b03841615611dcd57611dcd81858761220b565b6001600160a01b03811615611e0d57611dea6000866000806119b7565b6001600160a01b0381166000908152600383016020526040902080546000190190555b6001600160a01b03861615611e3e576001600160a01b03861660009081526003830160205260409020805460010190555b600085815260028301602052604080822080546001600160a01b0319166001600160a01b038a811691821790925591518893918516917fddf252ad1be2c89b69c2b068fc378daa952ba7f163c4a11628f55a4df523b3ef91a495945050505050565b600080516020612d448339815191526000611eba84610cfa565b60008481526001840160209081526040808320546001600160a01b03891684529186905290912091925090818314611f14576000838152602082815260408083205485845281842081905583526001870190915290208290555b6000948552600190930160209081526040808620869055928552929092528220919091555050565b600080516020612da483398151915254600080516020612d4483398151915290600090611f6b90600190612cfe565b6000848152600384016020526040812054600285018054939450909284908110611f9757611f97612a04565b9060005260206000200154905080846002018381548110611fba57611fba612a04565b600091825260208083209091019290925582815260038601909152604080822084905586825281205560028401805480611ff657611ff6612d11565b600190038181906000526020600020016000905590555050505050565b600080516020612d448339815191526000600161202f85610cfa565b6120399190612cfe565b6001600160a01b0390941660009081526020838152604080832087845282528083208690559482526001909301909252502055565b806001600160a01b03163b6000036120a457604051634c9c8ce360e01b81526001600160a01b03821660048201526024016106e4565b600080516020612d8483398151915280546001600160a01b0319166001600160a01b0392909216919091179055565b6060600080846001600160a01b0316846040516120f09190612d27565b600060405180830381855af49150503d806000811461212b576040519150601f19603f3d011682016040523d82523d6000602084013e612130565b606091505b509150915061197185838361226f565b3415610dfa5760405163b398979f60e01b815260040160405180910390fd5b60006121696117fe565b54600160401b900460ff16919050565b60606000612186836122cb565b60010190506000816001600160401b038111156121a5576121a56125fc565b6040519080825280601f01601f1916602001820160405280156121cf576020820181803683370190505b5090508181016020015b600019016f181899199a1a9b1b9c1cb0b131b232b360811b600a86061a8153600a85049450846121d957509392505050565b6122168383836123a3565b61098a576001600160a01b03831661224457604051637e27328960e01b8152600481018290526024016106e4565b60405163177e802f60e01b81526001600160a01b0383166004820152602481018290526044016106e4565b6060826122845761227f82612408565b611099565b815115801561229b57506001600160a01b0384163b155b156122c457604051639996b31560e01b81526001600160a01b03851660048201526024016106e4565b5080611099565b60008072184f03e93ff9f4daa797ed6e38ed64bf6a1f0160401b831061230a5772184f03e93ff9f4daa797ed6e38ed64bf6a1f0160401b830492506040015b6d04ee2d6d415b85acef81000000008310612336576d04ee2d6d415b85acef8100000000830492506020015b662386f26fc10000831061235457662386f26fc10000830492506010015b6305f5e100831061236c576305f5e100830492506008015b612710831061238057612710830492506004015b60648310612392576064830492506002015b600a83106107a25760010192915050565b60006001600160a01b038316158015906110965750826001600160a01b0316846001600160a01b031614806123dd57506123dd84846111a0565b806110965750826001600160a01b03166123f683611370565b6001600160a01b031614949350505050565b80511561241757805160208201fd5b60405163d6bda27560e01b815260040160405180910390fd5b80356001600160a01b038116811461244757600080fd5b919050565b60008083601f84011261245e57600080fd5b5081356001600160401b0381111561247557600080fd5b60208301915083602082850101111561248d57600080fd5b9250929050565b6000806000604084860312156124a957600080fd5b6124b284612430565b925060208401356001600160401b038111156124cd57600080fd5b6124d98682870161244c565b9497909650939450505050565b6001600160e01b03198116811461122857600080fd5b60006020828403121561250e57600080fd5b8135611099816124e6565b60005b8381101561253457818101518382015260200161251c565b50506000910152565b60008151808452612555816020860160208601612519565b601f01601f19169290920160200192915050565b602081526000611099602083018461253d565b60006020828403121561258e57600080fd5b5035919050565b600080604083850312156125a857600080fd5b6125b183612430565b946020939093013593505050565b6000806000606084860312156125d457600080fd5b6125dd84612430565b92506125eb60208501612430565b929592945050506040919091013590565b634e487b7160e01b600052604160045260246000fd5b600082601f83011261262357600080fd5b8135602083016000806001600160401b03841115612643576126436125fc565b50604051601f19601f85018116603f011681018181106001600160401b0382111715612671576126716125fc565b60405283815290508082840187101561268957600080fd5b838360208301376000602085830101528094505050505092915050565b600080604083850312156126b957600080fd5b6126c283612430565b915060208301356001600160401b038111156126dd57600080fd5b6126e985828601612612565b9150509250929050565b6000806020838503121561270657600080fd5b82356001600160401b0381111561271c57600080fd5b6127288582860161244c565b90969095509350505050565b6000806020838503121561274757600080fd5b82356001600160401b0381111561275d57600080fd5b8301601f8101851361276e57600080fd5b80356001600160401b0381111561278457600080fd5b8560208260051b840101111561279957600080fd5b6020919091019590945092505050565b6000602082840312156127bb57600080fd5b61109982612430565b602080825282518282018190526000918401906040840190835b818110156127fc5783518352602093840193909201916001016127de565b509095945050505050565b6000806040838503121561281a57600080fd5b61282383612430565b91506020830135801515811461283857600080fd5b809150509250929050565b6000806000806080858703121561285957600080fd5b61286285612430565b935061287060208601612430565b92506040850135915060608501356001600160401b0381111561289257600080fd5b61289e87828801612612565b91505092959194509250565b600080600080608085870312156128c057600080fd5b84356001600160401b038111156128d657600080fd5b6128e287828801612612565b94505060208501356001600160401b038111156128fe57600080fd5b61290a87828801612612565b9350506040850135915061292060608601612430565b905092959194509250565b6000806040838503121561293e57600080fd5b61294783612430565b915061295560208401612430565b90509250929050565b634e487b7160e01b600052601160045260246000fd5b6000600182016129865761298661295e565b5060010190565b81835281816020850137506000828201602090810191909152601f909101601f19169091010190565b60208152600061109660208301848661298d565b600181811c908216806129de57607f821691505b6020821081036129fe57634e487b7160e01b600052602260045260246000fd5b50919050565b634e487b7160e01b600052603260045260246000fd5b601f82111561098a57806000526020600020601f840160051c81016020851015612a415750805b601f840160051c820191505b818110156117f75760008155600101612a4d565b6001600160401b03831115612a7857612a786125fc565b612a8c83612a8683546129ca565b83612a1a565b6000601f841160018114612ac05760008515612aa85750838201355b600019600387901b1c1916600186901b1783556117f7565b600083815260209020601f19861690835b82811015612af15786850135825560209485019460019092019101612ad1565b5086821015612b0e5760001960f88860031b161c19848701351681555b505060018560011b0183555050505050565b808201808211156107a2576107a261295e565b6000808335601e19843603018112612b4a57600080fd5b8301803591506001600160401b03821115612b6457600080fd5b60200191503681900382131561248d57600080fd5b6001600160a01b0384168152604060208201819052600090611971908301848661298d565b600060208284031215612bb057600080fd5b5051919050565b81516001600160401b03811115612bd057612bd06125fc565b612be481612bde84546129ca565b84612a1a565b6020601f821160018114612c185760008315612c005750848201515b600019600385901b1c1916600184901b1784556117f7565b600084815260208120601f198516915b82811015612c485787850151825560209485019460019092019101612c28565b5084821015612c665786840151600019600387901b60f8161c191681555b50505050600190811b01905550565b6001600160a01b0385811682528416602082015260408101839052608060608201819052600090612ca89083018461253d565b9695505050505050565b600060208284031215612cc457600080fd5b8151611099816124e6565b60008351612ce1818460208801612519565b835190830190612cf5818360208801612519565b01949350505050565b818103818111156107a2576107a261295e565b634e487b7160e01b600052603160045260246000fd5b60008251612d39818460208701612519565b919091019291505056fe645e039705490088daad89bae25049a34f4a9072d398537b1ab2425f24cbed0080bb2b638cc20bc4d0a60d66940f3ab4a00c1d7b313497ca82fb0b4ab0079300360894a13ba1a3210667c828492db98dca3e2076cc3735a920a3ca505d382bbc645e039705490088daad89bae25049a34f4a9072d398537b1ab2425f24cbed02a26469706673582212203eae0d8158b914a2c3bb626619df40df174957d6901b520f1071f2a61a58493664736f6c634300081c0033",
  "linkReferences": {},
  "deployedLinkReferences": {}
}