{
  "_format": "hh-sol-artifact-1",
  "contractName": "StablecoinV1",
  "sourceName": "contracts/logics/StablecoinV1.sol",
  "abi": [
    {
      "inputs": [],
      "stateMutability": "nonpayable",
      "type": "constructor"
    },
    {
      "inputs": [
        {
          "internalType": "address",
          "name": "target",
          "type": "address"
        }
      ],
      "name": "AddressEmptyCode",
      "type": "error"
    },
    {
      "inputs": [
        {
          "internalType": "address",
          "name": "implementation",
          "type": "address"
        }
      ],
      "name": "ERC1967InvalidImplementation",
      "type": "error"
    },
    {
      "inputs": [],
      "name": "ERC1967NonPayable",
      "type": "error"
    },
    {
      "inputs": [
        {
          "internalType": "address",
          "name": "spender",
          "type": "address"
        },
        {
          "internalType": "uint256",
          "name": "allowance",
          "type": "uint256"
        },
        {
          "internalType": "uint256",
          "name": "needed",
          "type": "uint256"
        }
      ],
      "name": "ERC20InsufficientAllowance",
      "type": "error"
    },
    {
      "inputs": [
        {
          "internalType": "address",
          "name": "sender",
          "type": "address"
        },
        {
          "internalType": "uint256",
          "name": "balance",
          "type": "uint256"
        },
        {
          "internalType": "uint256",
          "name": "needed",
          "type": "uint256"
        }
      ],
      "name": "ERC20InsufficientBalance",
      "type": "error"
    },
    {
      "inputs": [
        {
          "internalType": "address",
          "name": "approver",
          "type": "address"
        }
      ],
      "name": "ERC20InvalidApprover",
      "type": "error"
    },
    {
      "inputs": [
        {
          "internalType": "address",
          "name": "receiver",
          "type": "address"
        }
      ],
      "name": "ERC20InvalidReceiver",
      "type": "error"
    },
    {
      "inputs": [
        {
          "internalType": "address",
          "name": "sender",
          "type": "address"
        }
      ],
      "name": "ERC20InvalidSender",
      "type": "error"
    },
    {
      "inputs": [
        {
          "internalType": "address",
          "name": "spender",
          "type": "address"
        }
      ],
      "name": "ERC20InvalidSpender",
      "type": "error"
    },
    {
      "inputs": [],
      "name": "FailedCall",
      "type": "error"
    },
    {
      "inputs": [],
      "name": "InvalidInitialization",
      "type": "error"
    },
    {
      "inputs": [],
      "name": "NotInitializing",
      "type": "error"
    },
    {
      "inputs": [
        {
          "internalType": "address",
          "name": "owner",
          "type": "address"
        }
      ],
      "name": "OwnableInvalidOwner",
      "type": "error"
    },
    {
      "inputs": [
        {
          "internalType": "address",
          "name": "account",
          "type": "address"
        }
      ],
      "name": "OwnableUnauthorizedAccount",
      "type": "error"
    },
    {
      "inputs": [],
      "name": "UUPSUnauthorizedCallContext",
      "type": "error"
    },
    {
      "inputs": [
        {
          "internalType": "bytes32",
          "name": "slot",
          "type": "bytes32"
        }
      ],
      "name": "UUPSUnsupportedProxiableUUID",
      "type": "error"
    },
    {
      "anonymous": false,
      "inputs": [
        {
          "indexed": true,
          "internalType": "address",
          "name": "owner",
          "type": "address"
        },
        {
          "indexed": true,
          "internalType": "address",
          "name": "spender",
          "type": "address"
        },
        {
          "indexed": false,
          "internalType": "uint256",
          "name": "value",
          "type": "uint256"
        }
      ],
      "name": "Approval",
      "type": "event"
    },
    {
      "anonymous": false,
      "inputs": [
        {
          "indexed": false,
          "internalType": "uint64",
          "name": "version",
          "type": "uint64"
        }
      ],
      "name": "Initialized",
      "type": "event"
    },
    {
      "anonymous": false,
      "inputs": [
        {
          "indexed": true,
          "internalType": "address",
          "name": "previousOwner",
          "type": "address"
        },
        {
          "indexed": true,
          "internalType": "address",
          "name": "newOwner",
          "type": "address"
        }
      ],
      "name": "OwnershipTransferred",
      "type": "event"
    },
    {
      "anonymous": false,
      "inputs": [
        {
          "indexed": true,
          "internalType": "address",
          "name": "seller",
          "type": "address"
        },
        {
          "indexed": false,
          "internalType": "uint256",
          "name": "tokenAmount",
          "type": "uint256"
        },
        {
          "indexed": false,
          "internalType": "uint256",
          "name": "ethAmount",
          "type": "uint256"
        }
      ],
      "name": "TokensBurned",
      "type": "event"
    },
    {
      "anonymous": false,
      "inputs": [
        {
          "indexed": true,
          "internalType": "address",
          "name": "buyer",
          "type": "address"
        },
        {
          "indexed": false,
          "internalType": "uint256",
          "name": "ethAmount",
          "type": "uint256"
        },
        {
          "indexed": false,
          "internalType": "uint256",
          "name": "tokenAmount",
          "type": "uint256"
        }
      ],
      "name": "TokensPurchased",
      "type": "event"
    },
    {
      "anonymous": false,
      "inputs": [
        {
          "indexed": true,
          "internalType": "address",
          "name": "from",
          "type": "address"
        },
        {
          "indexed": true,
          "internalType": "address",
          "name": "to",
          "type": "address"
        },
        {
          "indexed": false,
          "internalType": "uint256",
          "name": "value",
          "type": "uint256"
        }
      ],
      "name": "Transfer",
      "type": "event"
    },
    {
      "anonymous": false,
      "inputs": [
        {
          "indexed": true,
          "internalType": "address",
          "name": "implementation",
          "type": "address"
        }
      ],
      "name": "Upgraded",
      "type": "event"
    },
    {
      "inputs": [],
      "name": "UPGRADE_INTERFACE_VERSION",
      "outputs": [
        {
          "internalType": "string",
          "name": "",
          "type": "string"
        }
      ],
      "stateMutability": "view",
      "type": "function"
    },
    {
      "inputs": [
        {
          "internalType": "address",
          "name": "owner",
          "type": "address"
        },
        {
          "internalType": "address",
          "name": "spender",
          "type": "address"
        }
      ],
      "name": "allowance",
      "outputs": [
        {
          "internalType": "uint256",
          "name": "",
          "type": "uint256"
        }
      ],
      "stateMutability": "view",
      "type": "function"
    },
    {
      "inputs": [
        {
          "internalType": "address",
          "name": "spender",
          "type": "address"
        },
        {
          "internalType": "uint256",
          "name": "value",
          "type": "uint256"
        }
      ],
      "name": "approve",
      "outputs": [
        {
          "internalType": "bool",
          "name": "",
          "type": "bool"
        }
      ],
      "stateMutability": "nonpayable",
      "type": "function"
    },
    {
      "inputs": [
        {
          "internalType": "address",
          "name": "account",
          "type": "address"
        }
      ],
      "name": "balanceOf",
      "outputs": [
        {
          "internalType": "uint256",
          "name": "",
          "type": "uint256"
        }
      ],
      "stateMutability": "view",
      "type": "function"
    },
    {
      "inputs": [
        {
          "internalType": "uint256",
          "name": "tokenAmount",
          "type": "uint256"
        }
      ],
      "name": "burnForETH",
      "outputs": [
        {
          "internalType": "uint256",
          "name": "ethAmount",
          "type": "uint256"
        }
      ],
      "stateMutability": "nonpayable",
      "type": "function"
    },
    {
      "inputs": [],
      "name": "buyWithETH",
      "outputs": [
        {
          "internalType": "uint256",
          "name": "tokenAmount",
          "type": "uint256"
        }
      ],
      "stateMutability": "payable",
      "type": "function"
    },
    {
      "inputs": [],
      "name": "chainlink",
      "outputs": [
        {
          "internalType": "contract IChainlink",
          "name": "",
          "type": "address"
        }
      ],
      "stateMutability": "view",
      "type": "function"
    },
    {
      "inputs": [],
      "name": "decimals",
      "outputs": [
        {
          "internalType": "uint8",
          "name": "",
          "type": "uint8"
        }
      ],
      "stateMutability": "view",
      "type": "function"
    },
    {
      "inputs": [
        {
          "internalType": "uint256",
          "name": "tokenAmount",
          "type": "uint256"
        }
      ],
      "name": "estimateETHFromTokens",
      "outputs": [
        {
          "internalType": "uint256",
          "name": "",
          "type": "uint256"
        }
      ],
      "stateMutability": "view",
      "type": "function"
    },
    {
      "inputs": [
        {
          "internalType": "uint256",
          "name": "ethAmount",
          "type": "uint256"
        }
      ],
      "name": "estimateTokensFromETH",
      "outputs": [
        {
          "internalType": "uint256",
          "name": "",
          "type": "uint256"
        }
      ],
      "stateMutability": "view",
      "type": "function"
    },
    {
      "inputs": [],
      "name": "faucet",
      "outputs": [
        {
          "internalType": "address",
          "name": "",
          "type": "address"
        }
      ],
      "stateMutability": "view",
      "type": "function"
    },
    {
      "inputs": [],
      "name": "getETHPrice",
      "outputs": [
        {
          "internalType": "uint256",
          "name": "",
          "type": "uint256"
        }
      ],
      "stateMutability": "view",
      "type": "function"
    },
    {
      "inputs": [
        {
          "internalType": "address",
          "name": "_chainlink",
          "type": "address"
        },
        {
          "internalType": "address",
          "name": "_owner",
          "type": "address"
        }
      ],
      "name": "initialize",
      "outputs": [],
      "stateMutability": "nonpayable",
      "type": "function"
    },
    {
      "inputs": [
        {
          "internalType": "address",
          "name": "to",
          "type": "address"
        },
        {
          "internalType": "uint256",
          "name": "amount",
          "type": "uint256"
        }
      ],
      "name": "mint",
      "outputs": [],
      "stateMutability": "nonpayable",
      "type": "function"
    },
    {
      "inputs": [],
      "name": "name",
      "outputs": [
        {
          "internalType": "string",
          "name": "",
          "type": "string"
        }
      ],
      "stateMutability": "view",
      "type": "function"
    },
    {
      "inputs": [],
      "name": "owner",
      "outputs": [
        {
          "internalType": "address",
          "name": "",
          "type": "address"
        }
      ],
      "stateMutability": "view",
      "type": "function"
    },
    {
      "inputs": [],
      "name": "proxiableUUID",
      "outputs": [
        {
          "internalType": "bytes32",
          "name": "",
          "type": "bytes32"
        }
      ],
      "stateMutability": "view",
      "type": "function"
    },
    {
      "inputs": [],
      "name": "renounceOwnership",
      "outputs": [],
      "stateMutability": "nonpayable",
      "type": "function"
    },
    {
      "inputs": [
        {
          "internalType": "address",
          "name": "_chainlink",
          "type": "address"
        }
      ],
      "name": "setChainlink",
      "outputs": [],
      "stateMutability": "nonpayable",
      "type": "function"
    },
    {
      "inputs": [
        {
          "internalType": "address",
          "name": "_faucet",
          "type": "address"
        }
      ],
      "name": "setFaucet",
      "outputs": [],
      "stateMutability": "nonpayable",
      "type": "function"
    },
    {
      "inputs": [
        {
          "internalType": "uint256",
          "name": "_rate",
          "type": "uint256"
        }
      ],
      "name": "setUsdToHkdRate",
      "outputs": [],
      "stateMutability": "nonpayable",
      "type": "function"
    },
    {
      "inputs": [],
      "name": "symbol",
      "outputs": [
        {
          "internalType": "string",
          "name": "",
          "type": "string"
        }
      ],
      "stateMutability": "view",
      "type": "function"
    },
    {
      "inputs": [],
      "name": "totalSupply",
      "outputs": [
        {
          "internalType": "uint256",
          "name": "",
          "type": "uint256"
        }
      ],
      "stateMutability": "view",
      "type": "function"
    },
    {
      "inputs": [
        {
          "internalType": "address",
          "name": "to",
          "type": "address"
        },
        {
          "internalType": "uint256",
          "name": "value",
          "type": "uint256"
        }
      ],
      "name": "transfer",
      "outputs": [
        {
          "internalType": "bool",
          "name": "",
          "type": "bool"
        }
      ],
      "stateMutability": "nonpayable",
      "type": "function"
    },
    {
      "inputs": [
        {
          "internalType": "address",
          "name": "from",
          "type": "address"
        },
        {
          "internalType": "address",
          "name": "to",
          "type": "address"
        },
        {
          "internalType": "uint256",
          "name": "value",
          "type": "uint256"
        }
      ],
      "name": "transferFrom",
      "outputs": [
        {
          "internalType": "bool",
          "name": "",
          "type": "bool"
        }
      ],
      "stateMutability": "nonpayable",
      "type": "function"
    },
    {
      "inputs": [
        {
          "internalType": "address",
          "name": "newOwner",
          "type": "address"
        }
      ],
      "name": "transferOwnership",
      "outputs": [],
      "stateMutability": "nonpayable",
      "type": "function"
    },
    {
      "inputs": [
        {
          "internalType": "address",
          "name": "newImplementation",
          "type": "address"
        },
        {
          "internalType": "bytes",
          "name": "data",
          "type": "bytes"
        }
      ],
      "name": "upgradeToAndCall",
      "outputs": [],
      "stateMutability": "payable",
      "type": "function"
    },
    {
      "inputs": [],
      "name": "usdToHkdRate",
      "outputs": [
        {
          "internalType": "uint256",
          "name": "",
          "type": "uint256"
        }
      ],
      "stateMutability": "view",
      "type": "function"
    },
    {
      "inputs": [
        {
          "internalType": "address",
          "name": "to",
          "type": "address"
        },
        {
          "internalType": "uint256",
          "name": "amount",
          "type": "uint256"
        }
      ],
      "name": "withdrawETH",
      "outputs": [],
      "stateMutability": "nonpayable",
      "type": "function"
    },
    {
      "stateMutability": "payable",
      "type": "receive"
    }
  ],
  "bytecode": "0x60a06040523060805234801561001457600080fd5b5061001d610022565b6100d4565b7ff0c57e16840df040f15088dc2f81fe391c3923bec73e23a9662efc9c229c6a00805468010000000000000000900460ff16156100725760405163f92ee8a960e01b815260040160405180910390fd5b80546001600160401b03908116146100d15780546001600160401b0319166001600160401b0390811782556040519081527fc7f505b2f371ae2175ee4913f4499e1f2633a7b5936321eed1cdaeb6115181d29060200160405180910390a15b50565b608051611d806100fd6000396000818161109c015281816110c501526112060152611d806000f3fe6080604052600436106101c65760003560e01c80636ab128cd116100f7578063a607a8d911610095578063dd62ed3e11610064578063dd62ed3e146104ec578063de5f72fd1461050c578063ee5d02521461052c578063f2fde38b1461054c57600080fd5b8063a607a8d914610466578063a9059cbb1461047b578063ad3cb1cc1461049b578063d8b31c77146104cc57600080fd5b80638da5cb5b116100d15780638da5cb5b146103e45780638f7516461461041157806395d89b41146104315780639c3feeb71461044657600080fd5b80636ab128cd1461038f57806370a08231146103af578063715018a6146103cf57600080fd5b806323b872dd116101645780634782f7791161013e5780634782f77914610327578063485cc955146103475780634f1ef2861461036757806352d1902d1461037a57600080fd5b806323b872dd146102c9578063313ce567146102e957806340c10f191461030557600080fd5b8063150d283d116101a0578063150d283d1461025757806318160ddd1461025f5780631a9b878314610293578063200dd463146102a957600080fd5b806303c70aa6146101d257806306fdde0314610205578063095ea7b31461022757600080fd5b366101cd57005b600080fd5b3480156101de57600080fd5b506101f26101ed366004611774565b61056c565b6040519081526020015b60405180910390f35b34801561021157600080fd5b5061021a610598565b6040516101fc91906117b1565b34801561023357600080fd5b50610247610242366004611800565b61065b565b60405190151581526020016101fc565b6101f2610673565b34801561026b57600080fd5b507f52c63247e1f47db19d5ce0460030c497f067ca4cebf71ba98eeadabe20bace02546101f2565b34801561029f57600080fd5b506101f260025481565b3480156102b557600080fd5b506101f26102c4366004611774565b61070c565b3480156102d557600080fd5b506102476102e436600461182a565b610729565b3480156102f557600080fd5b50604051601281526020016101fc565b34801561031157600080fd5b50610325610320366004611800565b61074f565b005b34801561033357600080fd5b50610325610342366004611800565b6107cb565b34801561035357600080fd5b50610325610362366004611867565b61086d565b6103256103753660046118b0565b6109e6565b34801561038657600080fd5b506101f2610a01565b34801561039b57600080fd5b506103256103aa36600461197a565b610a1e565b3480156103bb57600080fd5b506101f26103ca36600461197a565b610a48565b3480156103db57600080fd5b50610325610a70565b3480156103f057600080fd5b506103f9610a84565b6040516001600160a01b0390911681526020016101fc565b34801561041d57600080fd5b5061032561042c366004611774565b610ab2565b34801561043d57600080fd5b5061021a610abf565b34801561045257600080fd5b506000546103f9906001600160a01b031681565b34801561047257600080fd5b506101f2610afe565b34801561048757600080fd5b50610247610496366004611800565b610c7c565b3480156104a757600080fd5b5061021a604051806040016040528060058152602001640352e302e360dc1b81525081565b3480156104d857600080fd5b506103256104e736600461197a565b610c8a565b3480156104f857600080fd5b506101f2610507366004611867565b610cb4565b34801561051857600080fd5b506001546103f9906001600160a01b031681565b34801561053857600080fd5b506101f2610547366004611774565b610cfe565b34801561055857600080fd5b5061032561056736600461197a565b610ec4565b6000610576610afe565b61058883670de0b6b3a76400006119ab565b61059291906119c2565b92915050565b7f52c63247e1f47db19d5ce0460030c497f067ca4cebf71ba98eeadabe20bace038054606091600080516020611d0b833981519152916105d7906119e4565b80601f0160208091040260200160405190810160405280929190818152602001828054610603906119e4565b80156106505780601f1061062557610100808354040283529160200191610650565b820191906000526020600020905b81548152906001019060200180831161063357829003601f168201915b505050505091505090565b600033610669818585610f02565b5060019392505050565b60008034116106b95760405162461bcd60e51b815260206004820152600d60248201526c09aeae6e840e6cadcc8408aa89609b1b60448201526064015b60405180910390fd5b6106c23461070c565b90506106ce3382610f0f565b604080513481526020810183905233917f8fafebcaf9d154343dad25669bfa277f4fbacd7ac6b0c4fed522580e040a0f33910160405180910390a290565b6000670de0b6b3a764000061071f610afe565b61058890846119ab565b600033610737858285610f45565b610742858585610fac565b60019150505b9392505050565b610757610a84565b6001600160a01b0316336001600160a01b0316148061078057506001546001600160a01b031633145b6107bd5760405162461bcd60e51b815260206004820152600e60248201526d139bdd08185d5d1a1bdc9a5e995960921b60448201526064016106b0565b6107c78282610f0f565b5050565b6107d361100b565b6000826001600160a01b03168260405160006040518083038185875af1925050503d8060008114610820576040519150601f19603f3d011682016040523d82523d6000602084013e610825565b606091505b50509050806108685760405162461bcd60e51b815260206004820152600f60248201526e151c985b9cd9995c8819985a5b1959608a1b60448201526064016106b0565b505050565b600061087761103d565b805490915060ff600160401b820416159067ffffffffffffffff1660008115801561089f5750825b905060008267ffffffffffffffff1660011480156108bc5750303b155b9050811580156108ca575080155b156108e85760405163f92ee8a960e01b815260040160405180910390fd5b845467ffffffffffffffff19166001178555831561091257845460ff60401b1916600160401b1785555b61095f6040518060400160405280600f81526020016e31a425a21029ba30b13632b1b7b4b760891b8152506040518060400160405280600481526020016310d212d160e21b815250611066565b61096886611078565b610970611089565b600080546001600160a01b0319166001600160a01b038916179055676c3f2aac800c000060025583156109dd57845460ff60401b19168555604051600181527fc7f505b2f371ae2175ee4913f4499e1f2633a7b5936321eed1cdaeb6115181d29060200160405180910390a15b50505050505050565b6109ee611091565b6109f782611136565b6107c7828261113e565b6000610a0b6111fb565b50600080516020611d2b83398151915290565b610a2661100b565b600080546001600160a01b0319166001600160a01b0392909216919091179055565b6001600160a01b03166000908152600080516020611d0b833981519152602052604090205490565b610a7861100b565b610a826000611244565b565b7f9016d09d72d40fdae2fd8ceac6b6234c7706214fd39c1cd1e609a0528c199300546001600160a01b031690565b610aba61100b565b600255565b7f52c63247e1f47db19d5ce0460030c497f067ca4cebf71ba98eeadabe20bace048054606091600080516020611d0b833981519152916105d7906119e4565b6000805460408051633fabe5a360e21b8152905183926001600160a01b03169163feaf968c9160048083019260a09291908290030181865afa158015610b48573d6000803e3d6000fd5b505050506040513d601f19601f82011682018060405250810190610b6c9190611a38565b50505091505060008113610bb25760405162461bcd60e51b815260206004820152600d60248201526c496e76616c696420707269636560981b60448201526064016106b0565b60008060009054906101000a90046001600160a01b03166001600160a01b031663313ce5676040518163ffffffff1660e01b8152600401602060405180830381865afa158015610c06573d6000803e3d6000fd5b505050506040513d601f19601f82011682018060405250810190610c2a9190611a8a565b90506000610c39826012611aad565b610c4490600a611bad565b610c4e90846119ab565b90506000670de0b6b3a764000060025483610c6991906119ab565b610c7391906119c2565b95945050505050565b600033610669818585610fac565b610c9261100b565b600180546001600160a01b0319166001600160a01b0392909216919091179055565b6001600160a01b0391821660009081527f52c63247e1f47db19d5ce0460030c497f067ca4cebf71ba98eeadabe20bace016020908152604080832093909416825291909152205490565b6000808211610d415760405162461bcd60e51b815260206004820152600f60248201526e0416d6f756e74206d757374203e203608c1b60448201526064016106b0565b81610d4b33610a48565b1015610d905760405162461bcd60e51b8152602060048201526014602482015273496e73756666696369656e742062616c616e636560601b60448201526064016106b0565b610d998261056c565b905080471015610deb5760405162461bcd60e51b815260206004820152601860248201527f496e73756666696369656e74204554482072657365727665000000000000000060448201526064016106b0565b610df533836112b5565b604051600090339083908381818185875af1925050503d8060008114610e37576040519150601f19603f3d011682016040523d82523d6000602084013e610e3c565b606091505b5050905080610e835760405162461bcd60e51b8152602060048201526013602482015272115512081d1c985b9cd9995c8819985a5b1959606a1b60448201526064016106b0565b604080518481526020810184905233917fccbea4088a3b7ae9ca2d15fab9a9742a4075b4d7247768a1eecea917565aba00910160405180910390a250919050565b610ecc61100b565b6001600160a01b038116610ef657604051631e4fbdf760e01b8152600060048201526024016106b0565b610eff81611244565b50565b61086883838360016112eb565b6001600160a01b038216610f395760405163ec442f0560e01b8152600060048201526024016106b0565b6107c7600083836113d3565b6000610f518484610cb4565b9050600019811015610fa65781811015610f9757604051637dc7a0d960e11b81526001600160a01b038416600482015260248101829052604481018390526064016106b0565b610fa6848484840360006112eb565b50505050565b6001600160a01b038316610fd657604051634b637e8f60e11b8152600060048201526024016106b0565b6001600160a01b0382166110005760405163ec442f0560e01b8152600060048201526024016106b0565b6108688383836113d3565b33611014610a84565b6001600160a01b031614610a825760405163118cdaa760e01b81523360048201526024016106b0565b6000807ff0c57e16840df040f15088dc2f81fe391c3923bec73e23a9662efc9c229c6a00610592565b61106e611511565b6107c78282611536565b611080611511565b610eff81611587565b610a82611511565b306001600160a01b037f000000000000000000000000000000000000000000000000000000000000000016148061111857507f00000000000000000000000000000000000000000000000000000000000000006001600160a01b031661110c600080516020611d2b833981519152546001600160a01b031690565b6001600160a01b031614155b15610a825760405163703e46dd60e11b815260040160405180910390fd5b610eff61100b565b816001600160a01b03166352d1902d6040518163ffffffff1660e01b8152600401602060405180830381865afa925050508015611198575060408051601f3d908101601f1916820190925261119591810190611bbc565b60015b6111c057604051634c9c8ce360e01b81526001600160a01b03831660048201526024016106b0565b600080516020611d2b83398151915281146111f157604051632a87526960e21b8152600481018290526024016106b0565b610868838361158f565b306001600160a01b037f00000000000000000000000000000000000000000000000000000000000000001614610a825760405163703e46dd60e11b815260040160405180910390fd5b7f9016d09d72d40fdae2fd8ceac6b6234c7706214fd39c1cd1e609a0528c19930080546001600160a01b031981166001600160a01b03848116918217845560405192169182907f8be0079c531659141344cd1fd0a4f28419497f9722a3daafe3b4186f6b6457e090600090a3505050565b6001600160a01b0382166112df57604051634b637e8f60e11b8152600060048201526024016106b0565b6107c7826000836113d3565b600080516020611d0b8339815191526001600160a01b0385166113245760405163e602df0560e01b8152600060048201526024016106b0565b6001600160a01b03841661134e57604051634a1406b160e11b8152600060048201526024016106b0565b6001600160a01b038086166000908152600183016020908152604080832093881683529290522083905581156113cc57836001600160a01b0316856001600160a01b03167f8c5be1e5ebec7d5bd14f71427d1e84f3dd0314c0f7b2291e5b200ac8c7c3b925856040516113c391815260200190565b60405180910390a35b5050505050565b600080516020611d0b8339815191526001600160a01b03841661140f57818160020160008282546114049190611bd5565b909155506114819050565b6001600160a01b038416600090815260208290526040902054828110156114625760405163391434e360e21b81526001600160a01b038616600482015260248101829052604481018490526064016106b0565b6001600160a01b03851660009081526020839052604090209083900390555b6001600160a01b03831661149f5760028101805483900390556114be565b6001600160a01b03831660009081526020829052604090208054830190555b826001600160a01b0316846001600160a01b03167fddf252ad1be2c89b69c2b068fc378daa952ba7f163c4a11628f55a4df523b3ef8460405161150391815260200190565b60405180910390a350505050565b6115196115e5565b610a8257604051631afcd79f60e31b815260040160405180910390fd5b61153e611511565b600080516020611d0b8339815191527f52c63247e1f47db19d5ce0460030c497f067ca4cebf71ba98eeadabe20bace036115788482611c2f565b5060048101610fa68382611c2f565b610ecc611511565b611598826115ff565b6040516001600160a01b038316907fbc7cd75a20ee27fd9adebab32041f755214dbc6bffa90cc0225b39da2e5c2d3b90600090a28051156115dd576108688282611664565b6107c76116d1565b60006115ef61103d565b54600160401b900460ff16919050565b806001600160a01b03163b60000361163557604051634c9c8ce360e01b81526001600160a01b03821660048201526024016106b0565b600080516020611d2b83398151915280546001600160a01b0319166001600160a01b0392909216919091179055565b6060600080846001600160a01b0316846040516116819190611cee565b600060405180830381855af49150503d80600081146116bc576040519150601f19603f3d011682016040523d82523d6000602084013e6116c1565b606091505b5091509150610c738583836116f0565b3415610a825760405163b398979f60e01b815260040160405180910390fd5b606082611705576117008261174c565b610748565b815115801561171c57506001600160a01b0384163b155b1561174557604051639996b31560e01b81526001600160a01b03851660048201526024016106b0565b5080610748565b80511561175b57805160208201fd5b60405163d6bda27560e01b815260040160405180910390fd5b60006020828403121561178657600080fd5b5035919050565b60005b838110156117a8578181015183820152602001611790565b50506000910152565b60208152600082518060208401526117d081604085016020870161178d565b601f01601f19169190910160400192915050565b80356001600160a01b03811681146117fb57600080fd5b919050565b6000806040838503121561181357600080fd5b61181c836117e4565b946020939093013593505050565b60008060006060848603121561183f57600080fd5b611848846117e4565b9250611856602085016117e4565b929592945050506040919091013590565b6000806040838503121561187a57600080fd5b611883836117e4565b9150611891602084016117e4565b90509250929050565b634e487b7160e01b600052604160045260246000fd5b600080604083850312156118c357600080fd5b6118cc836117e4565b9150602083013567ffffffffffffffff8111156118e857600080fd5b8301601f810185136118f957600080fd5b803567ffffffffffffffff8111156119135761191361189a565b604051601f8201601f19908116603f0116810167ffffffffffffffff811182821017156119425761194261189a565b60405281815282820160200187101561195a57600080fd5b816020840160208301376000602083830101528093505050509250929050565b60006020828403121561198c57600080fd5b610748826117e4565b634e487b7160e01b600052601160045260246000fd5b808202811582820484141761059257610592611995565b6000826119df57634e487b7160e01b600052601260045260246000fd5b500490565b600181811c908216806119f857607f821691505b602082108103611a1857634e487b7160e01b600052602260045260246000fd5b50919050565b805169ffffffffffffffffffff811681146117fb57600080fd5b600080600080600060a08688031215611a5057600080fd5b611a5986611a1e565b60208701516040880151606089015192975090955093509150611a7e60808701611a1e565b90509295509295909350565b600060208284031215611a9c57600080fd5b815160ff8116811461074857600080fd5b60ff828116828216039081111561059257610592611995565b6001815b6001841115611b0157808504811115611ae557611ae5611995565b6001841615611af357908102905b60019390931c928002611aca565b935093915050565b600082611b1857506001610592565b81611b2557506000610592565b8160018114611b3b5760028114611b4557611b61565b6001915050610592565b60ff841115611b5657611b56611995565b50506001821b610592565b5060208310610133831016604e8410600b8410161715611b84575081810a610592565b611b916000198484611ac6565b8060001904821115611ba557611ba5611995565b029392505050565b600061074860ff841683611b09565b600060208284031215611bce57600080fd5b5051919050565b8082018082111561059257610592611995565b601f82111561086857806000526020600020601f840160051c81016020851015611c0f5750805b601f840160051c820191505b818110156113cc5760008155600101611c1b565b815167ffffffffffffffff811115611c4957611c4961189a565b611c5d81611c5784546119e4565b84611be8565b6020601f821160018114611c915760008315611c795750848201515b600019600385901b1c1916600184901b1784556113cc565b600084815260208120601f198516915b82811015611cc15787850151825560209485019460019092019101611ca1565b5084821015611cdf5786840151600019600387901b60f8161c191681555b50505050600190811b01905550565b60008251611d0081846020870161178d565b919091019291505056fe52c63247e1f47db19d5ce0460030c497f067ca4cebf71ba98eeadabe20bace00360894a13ba1a3210667c828492db98dca3e2076cc3735a920a3ca505d382bbca2646970667358221220f5f6d8e8627471ac5418b69c5149b50829a5603f6952931da7065d9da024853b64736f6c634300081c0033",
  "linkReferences": {},
  "deployedLinkReferences": {}
}